:100000000C94F3010C941B020C941B020C941B0225
:100010000C941B020C941B020C941B020C94C70C36
:100020000C941B020C941B020C941B020C941B02DC
:100030000C941B020C941B020C941B020C941B02CC
:100040000C947D0C0C941B020C94490D0C94230D04
:100050000C941B020C941B020C941B020C941B02AC
:100060000C947B0D0C941B02303E5149453E3100EF
:10007000427F4000324261514946332141454B3174
:10008000341814127F10352745454539363C4A4906
:10009000493037017109050338364949493639066F
:1000A0004949291E417E1111117E427F4949493635
:1000B000433E41414122447F4141221C457F494901
:1000C0004941467F09090901487F0808087F49001E
:1000D000417F41004C7F404040404D7F020C027FF9
:1000E0004E7F0408107F4F3E4141413E507F090939
:1000F0000906527F09192946534649494931540195
:10010000017F0101553F4040403F561F2040201FC6
:10011000573F4038403F5863140814634443422F0C
:100120003120524541445920626F6172643D4B5306
:10013000303530312066773D0045565420485720F1
:100140004D41545249585F554E415641494C4142E8
:100150004C450041434B2000554E4B4E4F574E5F90
:10016000434F4D4D414E44004241445F54454C4540
:100170004D455452590030003100310020706C3D23
:100180000031002070623D00206D61747269783D1D
:10019000002053544154555320757074696D653D6A
:1001A000004441544120004241445F4745540042CD
:1001B00041445F50414E454C004241445F50414EE6
:1001C000454C0050414E454C5F4C45445F554E41B7
:1001D0005641494C41424C450050414E454C5F4CC4
:1001E00045445F554E415641494C41424C450042C1
:1001F00041445F50414E454C004241445F42555A94
:100200005A004241445F4D415452495800424144D2
:100210005F4D4154524958004241445F4D41545250
:100220004958004241445F4D4154524958004D41A4
:10023000545249585F554E415641494C41424C45F4
:10024000004241445F524742004241445F4C4544B2
:10025000004241445F4C4544004D414C464F524D95
:10026000454400455252202D20554E4B4E4F574E7F
:100270005F4D45535341474500455252202D204E76
:100280004F545F434F4E4E454354454400207570D4
:1002900074696D653D00504F4E47200030003100BD
:1002A000310020706C3D0031002070623D00206301
:1002B0006170733D5247422C4D41545249582C4273
:1002C000555A5A2C42544E2C50414E454C2C5345B5
:1002D0004E534F52532069723D30206D61747269E4
:1002E000783D0048454C4C4F204443422F31204B31
:1002F00053303530312000455252202D2050524F7E
:10030000544F434F4C5F4D49534D41544348004572
:100310005654204C494E4B2054494D454F5554009E
:10032000455252202D204C494E455F544F4F5F4C53
:100330004F4E470020757074696D653D00455654F9
:100340002042544E2050414E454C5F002075707441
:10035000696D653D00206D69633D0054454C205337
:10036000454E534F5253206C696768743D004C4FA3
:100370004E470055500052455045415400444F5798
:100380004E0000000000240027002A0000000000AA
:1003900023002600290000000008000201000003DD
:1003A0000407000000000000000045525220000237
:1003B00001020408102040800102040810200102FC
:1003C0000408102000000000250028002B00040471
:1003D00004040404040402020202020203030303ED
:1003E00003039A0E1C1911241FBECFEFD8E0DEBF05
:1003F000CDBF24E0A6E3B2E001C01D92A037B20752
:10040000E1F712E0A0E0B1E0E0E9F8E302C0059016
:100410000D92A633B107D9F711E0C2EFD1E004C0C5
:100420002197FE010E94001BC13FD107C9F70E941E
:100430009D0F0C943B1C0C940000833081F028F439
:10044000813099F08230A9F008958730A9F0883082
:10045000C9F08430B1F4809180008F7D03C0809119
:1004600080008F7780938000089584B58F7784BD56
:10047000089584B58F7DFBCF8091B0008F778093F6
:10048000B00008958091B0008F7DF9CFCF93DF93B6
:10049000282F30E0F901EA56FC4F8491F901E0552C
:1004A000FC4FD491F901E253FC4FC491CC23A1F04D
:1004B00081110E941D02EC2FF0E0EE0FFF1FE457A8
:1004C000FC4FA591B491EC91ED2381E090E009F40B
:1004D00080E0DF91CF91089580E090E0FACF1F9304
:1004E000CF93DF93282F30E0F901EA56FC4F849137
:1004F000F901E055FC4FD491F901E253FC4FC4914E
:10050000CC23A9F0162F81110E941D02EC2FF0E0E0
:10051000EE0FFF1FEC53FC4FA591B4918FB7F894E9
:10052000EC91111108C0D095DE23DC938FBFDF91D1
:10053000CF911F910895DE2BF8CFCF93DF9390E0FA
:10054000FC01E055FC4F249182539C4FFC018491A7
:100550008823C9F090E0880F991FFC01EE57FC4FEB
:10056000A591B491FC01EC53FC4FC591D49161115C
:100570000DC09FB7F8948C91209582238C9388812D
:10058000282328839FBFDF91CF910895623051F4D3
:100590009FB7F8943C91822F809583238C93E881B8
:1005A0002E2BEFCF8FB7F894EC912E2B2C938FBF7F
:1005B000EACF4F925F926F927F928F929F92AF920B
:1005C000BF92CF92DF92EF92FF920F931F93CF9340
:1005D000DF9300D000D01F92CDB7DEB78C012A0187
:1005E0003B01809100018930C9F08F3F09F47FC041
:1005F0000F900F900F900F900F90DF91CF911F9160
:100600000F91FF90EF90DF90CF90BF90AF909F90B1
:100610008F907F906F905F904F900895EFEAF3E096
:1006200084918D8387FDE4CF61E089E00E949D0283
:100630008D81882321F09D81923009F05CC14801B1
:10064000B12CA12C60E072E18AE790E0A50198014D
:100650000E94E11A29833A834B835C8369017A0102
:1006600081E0C81AD108E108F1089FEFC916D1044A
:10067000E104F10409F00CF413C160E472E48FE0CA
:1006800090E0A50198010E94E11A69017A0181E0D8
:10069000C81AD108E108F1089D81923009F098C08C
:1006A0008FEFC816D104E104F10409F00CF4DDC1A8
:1006B00060E970ED83E090E0A50198010E94E11AE5
:1006C00069017A0191E0C91AD108E108F1088FEFB8
:1006D000C816D104E104F10411F00CF0A3C183E0C9
:1006E0009091B100987F892B8093B100E1C089E09F
:1006F00080930001EFEAF3E094919D839F3F09F41A
:1007000077CF913029F158F0923009F43FC08D81B4
:1007100087FD6ECF61E089E00E949D028CCF14BC02
:1007200015BC84B5826084BD85B5816085BDE7ED6B
:10073000F3E0E491F0E0EE0FFF1FEC53FC4F8591E6
:100740009491E9EBF3E0E491E093B9021D826CCF60
:1007500010928000109281008091810088608093C7
:10076000810080918100816080938100E7EDF3E05A
:10077000E491F0E0EE0FFF1FEC53FC4F8591949154
:10078000E9EBF3E0E491E093B8024ECF1092B000B1
:100790001092B1008091B00082608093B00080918F
:1007A000B10081608093B100E7EDF3E0E491F0E007
:1007B000EE0FFF1FEC53FC4F859194919093B7027D
:1007C0008093B602E9EBF3E0E491E093B5022CCF1D
:1007D0009FEFC916D104E104F10409F00CF489C0BB
:1007E00068E478EE81E090E0A50198010E94E11AAA
:1007F00069017A0181E0C81AD108E108F1089D81F8
:10080000992309F428C19FEFC916D104E104F1042A
:1008100009F00CF41EC162E17AE780E090E0A501E6
:1008200094010E94E11A69017A0181E0C81AD10895
:10083000E108F1089D81992309F4EBC08FEFC816F8
:10084000D104E104F10411F008F0BFC086E048CF04
:1008500064E274EF80E090E0A50194010E94E11A47
:1008600069017A0181E0C81AD108E108F10885E040
:100870009FEFC916D104E104F10409F008F430CF68
:1008800062E17AE780E090E0A50194010E94E11A1C
:1008900069017A0191E0C91AD108E108F108CECFC7
:1008A00081E09D8191111CCF95B5987F892B85BDE5
:1008B0002FEF3FEFA901411451046104710409F0C5
:1008C00043C09D81913009F45EC0923009F46DC03F
:1008D00091118ECEC7BC2093C2023093C3024093C5
:1008E000C4025093C50280916E00826080936E00B6
:1008F0007FCE82E0D6CFB12CA12C60E072E18AE7F6
:1009000090E0A50198010E94E11A69017A0181E055
:10091000C81AD108E108F108C114D10491E0E90630
:10092000F10404F591E08D81813011F68091810010
:10093000887F892B809381002FEF3FEFA90141141D
:10094000510461047104F9F0D801AA0FBB1FA3017F
:1009500092010E947C1A28EE33E040E050E00E94B1
:100960005A1AAFCF68E478EE81E090E0A5019801D3
:100970000E94E11A69017A0181E0C81AD108E108F0
:10098000F10893E0D0CFD0928900C09288002093E4
:10099000BE023093BF024093C0025093C1028091C7
:1009A0006F00826080936F0023CEC092B3002093CB
:1009B000BA023093BB024093BC025093BD028091B7
:1009C000700082608093700013CEC980DA80EB8063
:1009D000FC809AE0F594E794D794C7949A95D1F760
:1009E00091E0C91AD108E108F10887E079CEC98001
:1009F000DA80EB80FC808AE0F594E794D794C79482
:100A00008A95D1F791E0C91AD108E108F10885E08B
:100A10004BCF8FEFC816D104E104F10409F038F789
:100A200084E042CF68E478EE81E090E0A50198018F
:100A30000E94E11A69017A0191E0C91AD108E1081E
:100A4000F1088FEFC816D104E104F10411F00CF0A5
:100A5000FFCE84E045CE8FEFC816D104E104F10447
:100A600011F00CF0D8CE83E01FCF82E039CECF92C8
:100A7000DF92EF92FF92CF93DF93209164042130B5
:100A8000B1F02230C1F02330D1F0243039F423E02A
:100A9000C5E7D1E0309165043217A8F010926404E4
:100AA000DF91CF91FF90EF90DF90CF90089522E0FB
:100AB000CDE8D1E0EFCF22E0C5E8D1E0EBCF21E0F7
:100AC000C1E8D1E0E7CF6B017C0191E0930F9093F7
:100AD000650424E0329FC0011124C80FD91F4A8148
:100AE00050E070E060E0888199810E94D9022A81FB
:100AF0006B8170E090E080E0620F711D811D911D9F
:100B0000C60ED71EE81EF91EC0926604D092670476
:100B1000E0926804F0926904C3CF8E5080648093A1
:100B20007C0080917A00806480937A0080917A00C2
:100B300086FDFCCF809178009091790008953FB7B1
:100B4000F8948091AD029091AE02A091AF02B09165
:100B5000B00226B5A89B05C02F3F19F00196A11D34
:100B6000B11D3FBFBA2FA92F982F8827BC01CD01F7
:100B7000620F711D811D911D42E0660F771F881F56
:100B8000991F4A95D1F70895089508950895909171
:100B9000000189130BC0EFEAF3E0E4919FEF90931B
:100BA0000001E13049F028F0E23061F060E00C949F
:100BB0006F0210926E00FACF90916F009D7F90931C
:100BC0006F00F4CF909170009D7F9093700091E042
:100BD0009093B0009091B100987F94609093B10091
:100BE0001092B300E3CFE5E4F4E0878F10A289E030
:100BF0000E94C7052FB7F8946091B1027091B202BC
:100C00008091B3029091B4022FBF0C943705AF923C
:100C1000BF92CF92DF92EF92FF920F931F93CF93E9
:100C2000DF936C017B018B01040F151FEB015E014B
:100C3000AE18BF08C017D10759F06991D601ED91E0
:100C4000FC910190F081E02DC6010995892B79F77F
:100C5000C501DF91CF911F910F91FF90EF90DF9031
:100C6000CF90BF90AF900895FC01538D448D252FF8
:100C700030E0842F90E0821B930B541710F0CF9636
:100C8000089501970895FC01918D828D981761F068
:100C9000A28DAE0FBF2FB11D5D968C91928D9F5F7F
:100CA0009F73928F90E008958FEF9FEF0895FC015E
:100CB000918D828D981731F0828DE80FF11D858D11
:100CC00090E008958FEF9FEF0895FC01918D228DA4
:100CD000892F90E0805C9F4F821B91098F73992729
:100CE000089586E193E00E94650621E0892B09F4CE
:100CF00020E0822F089580E090E0892B29F00E9467
:100D0000710681110C9400000895FC01A48DA80FB8
:100D1000B92FB11DA35ABF4F2C91848D90E001963D
:100D20008F739927848FA689B7892C93A089B1895D
:100D30008C91837080648C93938D848D981306C0FE
:100D40000288F389E02D80818F7D80830895EF9262
:100D5000FF920F931F93CF93DF93EC0181E0888F75
:100D60009B8D8C8D98131AC0E889F989808185FF45
:100D700015C09FB7F894EE89FF896083E889F989E7
:100D800080818370806480839FBF81E090E0DF91E9
:100D9000CF911F910F91FF90EF900895F62E0B8D3C
:100DA00010E00F5F1F4F0F731127E02E8C8D8E11F7
:100DB0000CC00FB607FCFACFE889F989808185FF5E
:100DC000F5CFCE010E948506F1CFEB8DEC0FFD2F04
:100DD000F11DE35AFF4FF0829FB7F8940B8FEA8919
:100DE000FB8980818062CFCF0F931F93CF93DF93D6
:100DF0008C01D0E0C0E0F801EC0FFD1F6491662388
:100E000041F086E193E00E94A706892B11F021961C
:100E1000F2CFCE01DF91CF911F910F910895CF9323
:100E2000DF93EC01888D8823B9F0AA89BB89E88912
:100E3000F9898C9185FD03C0808186FD0DC00FB6B8
:100E400007FCF7CF8C9185FFF2CF808185FFEDCF36
:100E5000CE010E948506E9CFDF91CF9108952091C0
:100E60007702260F3327331F21323105ECF420910E
:100E7000EC02FC0190E080E0243069F082E008950B
:100E8000A09177022191AC01495A5D4FA40FB52F73
:100E9000B11D2C930196861798F380917702680F05
:100EA0006093770280E0089581E008951092EC024B
:100EB00081E08093EB021092C60261E082E10E9421
:100EC0006F0261E083E10E946F02E9EBF0E0808154
:100ED0008E7F808380818D7F808388E48093B800BB
:100EE00085E48093BC000895CF93DF9391E09093C5
:100EF00056028823B9F0C091B800D091BA00809111
:100F0000BC008A7B8093BC0060E082E10E946F029B
:100F100060E083E10E946F020E945607D093BA00FE
:100F2000C093B800DF91CF910895CF92DF92EF92F6
:100F3000FF920F931F93CF93DF93D091150381E01E
:100F4000D13208F09CC0C09114030E949F056B0130
:100F50007C018091EC0281116CC082E08093EC02F4
:100F600081E08093EB028FEF8093EA021092E90216
:100F7000D093E802A4EFB2E0E8ECF2E080E0D8130E
:100F80008DC01092C7028091C702CC0FC82BC093AE
:100F9000C7028091C602813009F084C01092C60257
:100FA0000E949F056B017C018091C7028093BB006A
:100FB0008091EE029091EF02A091F002B091F102C7
:100FC000892B8A2B8B2BA1F00E949F050091EE02AA
:100FD0001091EF022091F0023091F1026C197D091D
:100FE0008E099F09061717072807390708F442C01A
:100FF0008091BC0083FDD8CF85EC8093BC000E941B
:101000009F056B017C018091EC02823009F44CC099
:101010008091EA028F3F09F469C08091EA02803230
:1010200009F466C08091EA02803309F463C084E069
:1010300026C08091EE029091EF02A091F002B09153
:10104000F102892B8A2B8B2B09F483CF0E949F05F9
:101050000091EE021091EF022091F0023091F10226
:101060006C197D098E099F0906171707280739078C
:1010700008F06FCF8091ED020E94740785E0109216
:10108000F302109215031092F202DF91CF911F919B
:101090000F91FF90EF90DF90CF9008959D919193E5
:1010A0008F5F6DCF85EEA9CF8091EE029091EF0218
:1010B000A091F002B091F102892B8A2B8B2B09F4BD
:1010C000A2CF0E949F050091EE021091EF022091A5
:1010D000F0023091F1026C197D098E099F09061703
:1010E00017072807390708F08ECFC4CF80E0C7CF95
:1010F00082E0C5CF83E0C3CFE0919F0280919E0242
:10110000E81730F4F0E0EA5CFD4F808190E008954C
:101110008FEF9FEF089590919F0280919E022FEF95
:101120003FEF981748F4E92FF0E0EA5CFD4F20818B
:1011300030E09F5F90939F02C901089580919E02C5
:1011400090919F02891B990B0895CF92DF92EF92A5
:10115000FF920F931F93CF93DF937C01CB018A0102
:101160002091F202222389F0EB016B01C40ED51EFF
:10117000CC15DD0569F06991D701ED91FC910190E5
:10118000F081E02DC7010995F3CF642F0E942F074E
:10119000C801DF91CF911F910F91FF90EF90DF90E9
:1011A000CF900895CF93DF931F92CDB7DEB76983B9
:1011B0002091F2022223F9F020911503203258F0F9
:1011C00021E030E0FC013383228390E080E00F9047
:1011D000DF91CF9108958091F302E82FF0E0EC5079
:1011E000FD4F998190838F5F8093F3028093150365
:1011F00081E090E0ECCF61E0CE0101960E942F07E4
:10120000F7CF682F83EB93E00C94D20890E080E056
:1012100008958F929F92AF92BF92CF92DF92EF92FA
:10122000FF921F93CF93DF93FC014A01AA24BB24B2
:10123000C82DC32ED42EE52EFF241C2DD22F808541
:10124000882361F0889E40011124C92D8C9D600186
:1012500011241D2D829FD0011124DB2FA685E1844E
:10126000F2849385A91322C0CB01880F991F680FC0
:10127000791F6E0D7F1DA385A60FB72FB11DCC93CF
:10128000A485A60FB72FB11D1C938585680F711D0E
:10129000FB01D083DF91CF911F91FF90EF90DF9002
:1012A000CF90BF90AF909F908F900895660F771F5B
:1012B000660F771F6E0D7F1D252F33274427552777
:1012C000882349F090E0829F7001839FF00C929FE9
:1012D000F00C11242F2DA60FB72FB11D2C93CBCFBF
:1012E000CF92DF92EF92FF920F931F93CF93DF93F2
:1012F000CDB7DEB729970FB6F894DEBF0FBECDBFCE
:101300008C01DC0119968D919C91892B09F473C095
:101310000E949F05F801C784D088E188F2886C1587
:101320007D058E059F0520F46787708B818B928BDE
:10133000F801C784D088E188F2886C197D098E098C
:101340009F096C3271408105910510F3F894D80122
:1013500014968D919C9115979A8389831996ED9196
:10136000FC917F01BFEFEB1AFB0A80818987F801AE
:1013700090810388F489E02DD80155968C919923AA
:1013800009F448C09081982B988790818095892393
:101390008F838F818C8388E08B8358856F8149850B
:1013A0003B812C8189819A81D701508347FD252F6C
:1013B0003A952083262F39F0441F00C00000608337
:1013C000000000C0F2CF38E04D916083000001972B
:1013D00061F7D8015496FC93EE93539749873B836A
:1013E0002C839A83898378940E949F05F8016787EC
:1013F000708B818B928B29960FB6F894DEBF0FBE4F
:10140000CDBFDF91CF911F910F91FF90EF90DF90B3
:10141000CF9008959081982B98879081809589230B
:101420008F838F818E8388E08D8358856F81498576
:101430003D812E8189819A81D701508347FD252FD7
:1014400000C000C0208300C000C000C000C000C0B9
:1014500060830000262F3A9541F0441F000000C031
:1014600000C000C000C000C0E8CF38E04D9100C00F
:10147000608300C0019709F7D8015496FC93EE935E
:10148000539749873D832E83ACCF0F931F93CF9300
:10149000DF93FC012089222341F1EC0181E080935C
:1014A000F20280E7809314031092F3021092150366
:1014B00090E080E00E9401098E01005F1F4F68816B
:1014C000229683EB93E00E94D208FE01329761815D
:1014D00083EB93E00E94D2080C171D0781F7DF9180
:1014E000CF911F910F910C949507DF91CF911F9190
:1014F0000F9108956031D0F44830C1F050E0440FAE
:10150000551FDC01A40FB51F8D919C911197E1E04F
:10151000F0E0AF0102C0440F551F6A95E2F7BA012F
:10152000222329F0682B792B6D937C930895609585
:10153000709568237923F8CFAF92BF92CF92DF9254
:10154000EF92FF920F931F93CF93DF936C01142FB1
:101550008FE9860F8A3108F46052D0E0C0E0FE01C6
:10156000E859FF4FE491E61779F02696C43BD10580
:10157000B1F7DF91CF911F910F91FF90EF90DF9026
:10158000CF90BF90AF900895C759DF4F05E0010F8E
:10159000FE01A490F12CE12CB12C95010E2C02C07F
:1015A000369527950A94E2F721704E2D612FC601DA
:1015B0000E947A0AFFEFEF1AFF0A87E0E816F104AB
:1015C00061F721961F5F1013E3CFD3CFFC01019089
:1015D0000020E9F73197AF01481B590BBC0186E1A8
:1015E00093E00C9407068F929F92AF92BF920F9355
:1015F0001F93CF93DF93CDB7DEB7A1970FB6F894C3
:10160000DEBF0FBECDBF19A2423008F44AE08E0102
:101610000F5D1F4F842E912CB12CA12CA50194019C
:101620000E945A1AE62FB901CA01EA30F4F4E05DCB
:10163000D801EE938D01232B242B252B79F790E0F5
:1016400080E0109719F0CD010E94E60AA1960FB62E
:10165000F894DEBF0FBECDBFDF91CF911F910F91E8
:10166000BF90AF909F908F900895E95CE1CFCF93AA
:10167000DF934AE00E94F30AEC0189EB91E00E94BB
:10168000E60A8C0F9D1FDF91CF910895CF93DF93D2
:101690000E94F406EC0189EB91E00E94E60A8C0FAF
:1016A0009D1FDF91CF910895009711F00C94E60AE9
:1016B00090E080E008950F931F93CF93DF938C0108
:1016C000EB018AEA93E00E94F406C8010E94540BE1
:1016D00060E286E193E00E94A706CE01DF91CF9100
:1016E0001F910F910C94460B0F931F93CF93DF9391
:1016F000EC018B01198A1A8A1B8A1C8A80E1FE017F
:1017000011928A95E9F76CEB71E0C8010E94321CD6
:10171000892BC1F5888599858860998788878A850E
:101720009B8580619B878A878C859D8580629D874C
:101730008C8716E00BE0602F611B21E0412FCE016A
:101740000E947A0A1150B8F710E0CE010E94450AB3
:10175000112399F02FB7F8948091B1029091B202C1
:10176000A091B302B091B4022FBF88519C4FAF4FEC
:10177000BF4F898B9A8BAB8BBC8BDF91CF911F9125
:101780000F91089565EE71E0C8010E94321C892B0B
:10179000A1F410E00BE064E0610F21E0412FCE01E5
:1017A0000E947A0A602F611B21E0412FCE010E9426
:1017B0007A0A1F5F183079F7C7CF0115110521F09C
:1017C000F8016081611101C06FE345E0CE010E9424
:1017D0009C0A11E0BACF85ED8093BC008091EE02A7
:1017E0009091EF02A091F002B091F1020796A11D35
:1017F000B11D23E0B695A795979587952A95D1F7C2
:101800002091BC0024FD03C01092EC020895409189
:10181000EE025091EF026091F0027091F102452BBF
:10182000462B472B69F30097A105B10541F02AE249
:101830002A95F1F700C00197A109B109E1CF809184
:10184000ED020C947407CF92DF92EF92FF920F9308
:101850001F93CF93DF9300D0CDB7DEB7009759F138
:10186000DC01EC91EE2339F189016A017B011A82D6
:1018700019824AE050E0BE016F5F7F4F0E942C1931
:10188000E981FA812081211116C0C616D706E80623
:10189000F90688F0F801608371838283938381E085
:1018A0000F900F90DF91CF911F910F91FF90EF90CC
:1018B000DF90CF90089580E0F3CF0F931F93CF93E5
:1018C000DF9300D000D0CDB7DEB78B019E012F5F34
:1018D0003F4F4FEF50E060E070E00E94230C882300
:1018E00019F09981F80190830F900F900F900F904D
:1018F000DF91CF911F910F9108951F920F920FB614
:101900000F9211242F933F938F939F93AF93BF9385
:101910008091B1029091B202A091B302B091B40251
:101920003091AC0223E0230F2D3758F50196A11D0D
:10193000B11D2093AC028093B1029093B202A093A8
:10194000B302B093B4028091AD029091AE02A09127
:10195000AF02B091B0020196A11DB11D8093AD02FE
:101960009093AE02A093AF02B093B002BF91AF913B
:101970009F918F913F912F910F900FBE0F901F90CD
:10198000189526E8230F0296A11DB11DD2CF1F92F4
:101990000F920FB60F9211242F933F934F935F93A3
:1019A0006F937F938F939F93AF93BF93EF93FF9327
:1019B0008091BA029091BB02A091BC02B091BD028D
:1019C000892B8A2B8B2BD1F19091B502E091B60235
:1019D000F091B7028081892780838091BA0290912B
:1019E000BB02A091BC02B091BD02181619061A06DE
:1019F0001B069CF48091BA029091BB02A091BC029C
:101A0000B091BD020197A109B1098093BA029093E8
:101A1000BB02A093BC02B093BD02FF91EF91BF91B6
:101A2000AF919F918F917F916F915F914F913F9176
:101A30002F910F900FBE0F901F901895809100016D
:101A40000E94C705EACF1F920F920FB60F92112482
:101A50002F933F934F935F936F937F938F939F93B6
:101A6000AF93BF93EF93FF9386E193E00E948506C7
:101A7000FF91EF91BF91AF919F918F917F916F9166
:101A80005F914F913F912F910F900FBE0F901F903C
:101A900018951F920F920FB60F9211242F938F93C8
:101AA0009F93EF93FF93E0912603F09127038081AA
:101AB000E0912C03F0912D0382FD1BC09081809159
:101AC0002F038F5F8F7320913003821741F0E091D5
:101AD0002F03F0E0EA5EFC4F958F80932F03FF9178
:101AE000EF919F918F912F910F900FBE0F901F90AC
:101AF00018958081F4CF1F920F920FB60F92112488
:101B00002F933F934F935F936F937F938F939F9305
:101B1000AF93BF93EF93FF938091B900887F803696
:101B200009F44AC0F0F5883209F4A7C018F58031ED
:101B300009F49BC0B8F4882309F4F9C0883009F48B
:101B400094C0FF91EF91BF91AF919F918F917F9141
:101B50006F915F914F913F912F910F900FBE0F901A
:101B60001F901895883109F488C0803251F780930E
:101B7000EA0214C0803409F49DC040F48033B9F304
:101B80008833F9F68093EA0285ECB0C0803509F419
:101B900085C0883509F496C0883499F60E94EB0B0D
:101BA000D0CF883909F48CC038F5883729F050F443
:101BB000883611F0803729F683E08093EC0210928A
:101BC000990257C0883809F47BC0803919F08038F1
:101BD00009F0B7CF80919902803208F071C0E0918E
:101BE000990281E08E0F809399028091BB00F0E012
:101BF000E758FD4F80833DC0803B39F0E0F4803AE8
:101C000009F479C0883A09F09CCF84E08093EC0213
:101C10001092780210927702E0919C02F0919D025E
:101C200009958091770281110FC081E0809377023E
:101C30001092570209C0803C09F4A6CF883C09F4F1
:101C4000A3CF883B09F07DCFE091780281E08E0F31
:101C500080937802F0E0E95AFD4F80818093BB00C9
:101C6000909178028091770229C08091C702809379
:101C7000BB0085EC8093BC0064CF9091E902809119
:101C8000E802981758F5E091E90281E08E0F809301
:101C9000E902F0E0E853FD4F8081E9CFE091E902ED
:101CA00081E08E0F8093E9028091BB00F0E0E85361
:101CB000FD4F80839091E9028091E8029817C8F265
:101CC00085E8D8CFE091E90281E08E0F8093E902A8
:101CD0008091BB00F0E0E853FD4F80838091EB02E0
:101CE00081115CCF81E08093C60284EA8093BC00BE
:101CF0001092EC0226CF85EC8093BC001092EC028F
:101D000080919902803230F4E0919902F0E0E75836
:101D1000FD4F10826091990270E0E0919A02F0917B
:101D20009B0289E792E00995109299020ACF1092DE
:101D3000EA0234CF109219031092180388EE93E050
:101D4000A0E0B0E080931A0390931B03A0931C03C0
:101D5000B0931D0329E931E0309317032093160354
:101D600025EC30E0309323032093220324EC30E071
:101D7000309325032093240320EC30E03093270395
:101D80002093260321EC30E030932903209328038D
:101D900022EC30E030932B0320932A0326EC30E032
:101DA00030932D0320932C0310922F0310923003B5
:101DB00010923103109232031092B6031092B503C1
:101DC0008093B7039093B803A093B903B093BA0379
:101DD0008BEA91E09093B4038093B30380E394E0A3
:101DE00090934604809345041092480410924F0447
:101DF00010925604109257041092580410925904ED
:101E000081E080935504809352041092530492E031
:101E1000909354048093470486E090E090934C04A0
:101E200080934B040E94061B9093510480935004AE
:101E3000009709F479C026E0FC0111922A95E9F790
:101E400082E090E090934A048093490484E090E01B
:101E500090934E0480934D0480914804882341F070
:101E600061E084E00E949D0260E084E00E946F02D5
:101E7000E2EDF3E0E491F0E0EE0FFF1FEC53FC4FD6
:101E80008591949190935B0480935A04E4EBF3E082
:101E9000E491E0935C0481E080935D0410925E0421
:101EA00010925F04109260041092610485E08093A8
:101EB000620480936304109264041092650410928B
:101EC000660410926704109268041092690485E415
:101ED00094E09093C0038093BF0380E394E09093D9
:101EE000C2038093C10381E091E09093C403809387
:101EF000C303109225041092260410922704109216
:101F000028041092290410922A0410922B0488EEBF
:101F100093E0A0E0B0E080932C0490932D04A09374
:101F20002E04B0932F04089510924C0410924B0489
:101F300010924A041092490489CFCF93DF93CDB712
:101F4000DEB764970FB6F894DEBF0FBECDBF7894AE
:101F500084B5826084BD84B5816084BD85B58260AE
:101F600085BD85B5816085BD80916E00816080935F
:101F70006E001092810080918100826080938100C8
:101F800080918100816080938100809180008160D8
:101F9000809380008091B10084608093B100809133
:101FA000B00081608093B00080917A00846080935B
:101FB0007A0080917A00826080937A0080917A0022
:101FC000816080937A0080917A00806880937A00A3
:101FD0001092C10010929F0210929E021092F30282
:101FE000109215030E94560785EC95E090939D0290
:101FF00080939C0286EC95E090939B0280939A02DA
:1020000081E08093F20280E7809314030E94950799
:1020100091E0811190E090934004F12C81113DC03A
:1020200011E01093F2021092F3021092150381E274
:1020300090E00E9401090E9495071093F20210920D
:10204000F3021092150381E890E00E9401090E94BA
:10205000950780914004882361F01093F20210925A
:10206000F3021092150385EE90E00E9401090E9490
:10207000950710924104109242041092430410926A
:102080004404E0E3F4E080E1DF011D928A95E9F782
:10209000CF010E94450AFF24F39461E089E00E9489
:1020A0009D0280914D0490914E0497FD2EC061E0F9
:1020B0000E949D0260E080914D040E946F0281E0C9
:1020C0008093480460914F04209150043091510452
:1020D000613421F16150E1F070E08FEF90E40E94F3
:1020E000CD1AF90140914B0450914C04CF01821B51
:1020F000930B8417950778F44081469FC001479F52
:10210000900D112490833196EDCF10924804DACFD0
:1021100070E060E0E6CF81E480934F0440914B048F
:1021200050914C0470E060E0809150049091510413
:102130000E942B1C87E494E00E94700980915D044A
:10214000882351F010925D0465EE71E080914504A2
:10215000909146040E94740B1092020110920101AA
:10216000F7E6CF2EF1E0DF2E10E000E0F601E1907F
:102170006F0162E08E2D0E949D028E2D0E9446020C
:102180008130910551F4002E01C0880F0A94EAF7BE
:1021900090910101892B809301010F5F1F4F08303F
:1021A000110521F780910101809302010FE611E0F2
:1021B000D801ED908D0161E08E2D0E949D0260E0BE
:1021C0008E2D0E946F02B1E005371B0789F7E09161
:1021D0002603F091270382E08083E0912203F091AF
:1021E00023031082E0912403F091250380E1808392
:1021F00010922E03E0912A03F0912B0386E0808356
:10220000E0912803F0912903808180618083E0912F
:102210002803F0912903808188608083E09128035E
:10222000F0912903808180688083E0912803F091F8
:10223000290380818F7D80838CE191E00E94F406E8
:1022400081E691E00E94E60A89EB91E00E94E60AAD
:10225000F11004C089E391E00E94460B8FB7F89417
:102260004090B1025090B2026090B3027090B402FC
:102270008FBF22242394312C86E193E00E946506CF
:10228000181619060CF098C486E193E00E944306E4
:102290008A3009F079C480912604882349F080E2CD
:1022A00093E00E94460B1092260410922504E4CF7E
:1022B000E0912504EE23C9F3F0E0E154FC4F1682CF
:1022C0001C861B86AE01455F5F4F61EC71E085ECBB
:1022D00093E00E94201A8C01009739F363EC71E0BF
:1022E0000E94321C892B09F07EC0AE01455F5F4F12
:1022F00061EC71E090E080E00E94201A009731F0DC
:1023000069EC71E00E94321C892B29F087EF92E082
:102310000E94460BCACF81E0809327044092280494
:102320005092290460922A0470922B040091BF03FA
:102330001091C003F801908D91112CC0808F78010D
:10234000F2E0EF0EF11CD80114968D919C91892B2F
:1023500049F020E034EB40E050E070E060E0C7017D
:102360000E940909F80184819581029748F020E0D4
:1023700034EB40E050E061E070E0C7010E940909E1
:10238000C7010E9470096CEB71E0D8018D919C919E
:102390000E94740B83EE92E00E94F40681E691E0C5
:1023A0000E94540B8EEA92E00E94F406E091C10371
:1023B000F091C2038089882399F08EE992E00E940F
:1023C000F40689EA92E00E94F40687EA92E00E940D
:1023D000F40682EA92E00E94F40680EA92E098CF46
:1023E0008CE992E0ECCF6FEC71E0C8010E94321CE6
:1023F000892B31F5AE01455F5F4F61EC71E090E0F4
:1024000080E00E94201A8C01892B11F40FEB11E05F
:10241000409228045092290460922A0470922B045E
:1024200086E992E00E94F406C8010E94540B8DE8F0
:1024300092E00E94F406C301B2010E94370B35CF2F
:1024400064ED71E0C8010E94321C892B09F099C328
:1024500080912704811103C089E792E059CF40920F
:1024600028045092290460922A0470922B048B85D0
:102470009C859A878987AE01475F5F4F61EC71E069
:1024800090E080E00E94201A8C01AE01475F5F4F10
:1024900061EC71E090E080E00E94201A7C0101155F
:1024A000110541F0009749F469E572E0C8010E9406
:1024B0005B0BFBCE0FEB11E0F7CF68ED71E00E94F4
:1024C000321C892BE1F4AE01475F5F4F61EC71E094
:1024D00090E080E00E94201A7C01AE01475F5F4FD0
:1024E00061EC71E090E080E00E94201AEF2821F07A
:1024F00069E472E0892BD1F661E572E0D7CF6CED2B
:1025000071E0C7010E94321C892B09F07FC0AE0127
:10251000475F5F4F61EC71E090E080E00E94201A1D
:102520004C01AE01475F5F4F61EC71E090E080E0ED
:102530000E94201A5C01AE01475F5F4F61EC71E0C1
:1025400090E080E00E94201A6C01AE01475F5F4F6F
:1025500061EC71E090E080E00E94201A7C01BE01F5
:10256000625F7F4FC4010E945D0C882309F44BC059
:10257000BE01635F7F4FC5010E945D0C882309F493
:1025800042C0BE016B5F7F4FC6010E945D0C882375
:10259000D1F1BE016F5F7F4FC7010E945D0C8823A0
:1025A00091F1E091BF03F091C00389812D819D8558
:1025B0006E85623040F5308D332329F17F01B2E022
:1025C000EB0EF11C30E050E040E0542F432F322F4F
:1025D0002227492B282B70E0848195816817790781
:1025E00018F4C7010E940909C7010E94700983E518
:1025F00091E00E94F406C8010E94E60A89EB91E08E
:102600000E94E60A52CE61E472E050CF60EE71E0C3
:10261000C7010E94321C892B09F00AC1AE01475F35
:102620005F4F61EC71E090E080E00E94201A6C0145
:10263000892BF9F0E090C103F090C203F701808983
:102640008823B9F067EE71E0C6010E94321C892B25
:1026500099F4D70151961D921D921D921C92549788
:1026600080E1F70111928A95E9F7C7010E94450AB6
:10267000BECF6EE272E01ACF6DEE71E0C6010E942D
:10268000321C892B01F5D70151961D921D921D9286
:102690001C925497DD24D394B12CC12C2C2D2D0DDC
:1026A00021704B2D6C2DC7010E947A0AC394B0E1B2
:1026B000CB12F4CFB394D394ED2DE170DE2EF8E07D
:1026C000BF12EBCFD2CF65EF71E0C6010E94321C82
:1026D000892BB1F4AE01475F5F4F61EC71E090E090
:1026E00080E00E94201A63E272E0009709F4DECED7
:1026F000BC018091C1039091C2030E94740B77CFFB
:102700006AEF71E0C6010E94321C892BA1F5AE016F
:10271000475F5F4F61EC71E090E080E00E94201A1B
:102720006C0168E172E0892B09F4C0CEE090C1032E
:10273000F090C203D70151961D921D921D921C92DA
:10274000549780E1F70111928A95E9F7D6016C91CF
:10275000662309F48ACF11968C9145E0882339F0DD
:1027600041E0C7010E949C0A49E0F6016181C7016E
:102770000E949C0A7ACF6FEF71E0C6010E94321C62
:10278000892B09F052C0AE01475F5F4F61EC71E0E9
:1027900090E080E00E94201ABE016F5F7F4F0E9490
:1027A0005D0C882309F43EC089818536D8F5E09018
:1027B000C103F090C20390E1D7011D929A95E9F709
:1027C000B0E18B9FC001112464E670E00E94CD1A35
:1027D000B62ED12CDB1470F4CC24C39421E04C2D04
:1027E0006D2DC7010E947A0AC394E7E0CE12F6CF9E
:1027F000D394F0CFC7010E94450A2FB7F894809177
:10280000B1029091B202A091B302B091B4022FBF75
:1028100084529A4FAF4FBF4FF701818B928BA38B9E
:10282000B48BE5CE6DE072E041CE62E072E03ECE68
:1028300063E072E0C7010E94321C892B09F047C097
:10284000AE01475F5F4F61EC71E090E080E00E9475
:10285000201A9E012B5F3F4F48E853E160E070E093
:102860000E94230C882381F1AE01475F5F4F61EC2A
:1028700071E090E080E00E94201A9E012F5F3F4FA0
:102880004AEF50E060E070E00E94230C8823E1F002
:102890008D819E819C012456310925323341A0F45B
:1028A00049815A816B817C819A01215031092A3FEB
:1028B000310550F4E091BF03F091C003178E6627F5
:1028C00077270E94D90293CE69EF71E0EFCD68E0DF
:1028D00072E0C7010E94321C892B09F0BFC0AE0113
:1028E000475F5F4F61EC71E090E080E00E94201A4A
:1028F0007C016FEE71E0009709F4D8CD68ED71E0CE
:102900000E94321C892B09F048C0AE01475F5F4F1F
:1029100061EC71E090E080E00E94201A6C01AE0151
:10292000475F5F4F61EC71E090E080E00E94201A09
:102930007C01BE016F5F7F4FC6010E945D0C882342
:1029400049F1E114F10431F167EF71E0C7010E9430
:10295000321C6C01892B39F06EE072E0C7010E94D5
:10296000321C892BB9F4E091C303F091C40389812F
:10297000863080F4410102C0880C991C8A95E2F7E8
:10298000C4012781CD2819F4822B878330CE80950E
:102990008223FBCF69ED71E089CD62E172E0C7016E
:1029A0000E94321C892BD9F4AE01475F5F4F61EC66
:1029B00071E090E080E00E94201A009769F06EE0DC
:1029C00072E00E94321C892B39F4E091C303F0912C
:1029D000C4038781807CD9CF63EC71E067CD66E169
:1029E00072E0C7010E94321C892BA9F5AE01475F36
:1029F0005F4F61EC71E090E080E00E94201ABE0120
:102A00006F5F7F4F0E945D0C882311F1E090C3033C
:102A1000F090C40369816536D8F46623A9F070E0AC
:102A200090E080E024E0660F771F881F991F2A95A9
:102A3000D1F76D597F4F8F4F9F4F24E630E040E034
:102A400050E00E945A1A622FD70118966C93CFCD8E
:102A500069EB71E02BCD6FEA71E028CD61E272E0A5
:102A6000C7010E94321C892B09F045C0AE01475FA7
:102A70005F4F61EC71E090E080E00E94201A0097C7
:102A800031F065E272E00E94321C892B19F067EA8E
:102A900071E00CCD81EA91E00E94F406C8010E9429
:102AA000540B81E991E00E94F4064AE0C301B201AF
:102AB0000E94F30A88E891E00E94F406E091C103C5
:102AC000F091C2038089882399F088E791E00E9401
:102AD000F40683E891E00E94F40681E891E00E9408
:102AE000F4068CE791E00E94F4068AE791E010CCAE
:102AF00086E791E0ECCF6CE272E0C7010E94321CE5
:102B0000892BE1F5AE01475F5F4F61EC71E090E02A
:102B100080E00E94201A7C01009779F06EE072E05C
:102B20000E94321C892B49F410922C0410922D041F
:102B300010922E0410922F045ACD9E012F5F3F4F0A
:102B400040E157E260E070E0C7010E94230C882357
:102B500091F089819A81AB81BC818A3F9105A10561
:102B6000B10548F080932C0490932D04A0932E047B
:102B7000B0932F043CCD68E671E098CC68E571E035
:102B800095CC83E692E0C4CB8D3009F475CBE0910F
:102B90002504EF3568F490912604911109C091E065
:102BA0009E0F90932504F0E0E154FC4F868364CBA4
:102BB00081E08093260460CB80912704882349F12B
:102BC0008091280490912904A0912A04B0912B04AB
:102BD00053014201881A990AAA0ABB0AD501C40105
:102BE00089389341A105B105A0F010922704E09126
:102BF000BF03F091C003808D882339F0108E65EEFD
:102C000071E0808191810E94740B8FE093E00E94BB
:102C1000460B809164048823B1F080916604909102
:102C20006704A0916804B0916904A3019201281B74
:102C3000390B4A0B5B0BDA01C901B7FD04C0C301B4
:102C4000B2010E94370580915D0481115CC08091C2
:102C50005E0490915F04A0916004B09161045301FF
:102C60004201881A990AAA0ABB0AD501C401C2976F
:102C7000A105B10508F447C040925E0450925F047C
:102C800060926004709261042091630480916204F8
:102C9000422F022E000C550B840F952F911DAC0175
:102CA000465051094A34510538F021952093630468
:102CB000820F911D27FD9A95282F809362048091A1
:102CC000490490914A04892B49F030E050E040E0FB
:102CD00070E060E087E494E00E9409098091490473
:102CE00090914A04029758F02091620430E050E03D
:102CF00040E061E070E087E494E00E94090987E425
:102D000094E00E9470098091410490914204A09146
:102D10004304B09144040097A105B105F1F06301AB
:102D20005201A81AB90ACA0ADB0AD601C501B7FDC1
:102D300014C0809127041092410410924204109212
:102D40004304109244046CEB71E0811102C065EE03
:102D500071E080E394E00E94740B0E949F05009153
:102D60005701109158012091590130915A016B017E
:102D70007C01C01AD10AE20AF30A97018601043FD6
:102D800011402105310598F1609357017093580166
:102D90008093590190935A0180910A018F5F8F703F
:102DA00080930A010FE611E0D12CC12CEE24E394AC
:102DB000F12C8091080197010C2C01C0220F0A947C
:102DC000EAF7822339F061E090910A0180910901CC
:102DD000981708F060E0D8018D918D010E946F0274
:102DE000BFEFCB1ADB0AE6E0CE16D10411F78091D3
:102DF000530190915401A0915501B0915601530196
:102E00004201881A990AAA0ABB0AD501C40105978A
:102E1000A105B10508F4F2C040925301509254014B
:102E2000609255017092560117E6C12E11E0D12E25
:102E3000F12CE12C10E0D6018D916D010E9446022B
:102E40008130910531F40E2C01C0880F0A94EAF705
:102E5000182BBFEFEB1AFB0AE8E0EE16F10459F766
:102E600020910201309101017091030160910701ED
:102E7000F0910401FC8B809006018B8A0091050182
:102E8000E1E0F1E050E040E022242394312CD30132
:102E9000C2018C509E4FAF4FBF4F8F87988BA98B2D
:102EA000BA8BC101042E01C0880F0A94EAF7E12E03
:102EB000E822CC24C394E11001C0C12CDD24D394BA
:102EC000F32EF82209F4D12CCD1441F0EE2009F4B0
:102ED0004EC0382B4286538664867586B32FB8233E
:102EE000DD24D394E22EE82209F4D12CEE24E394DD
:102EF000B11101C0E12CDE14C1F082849384A4845A
:102F0000B58473016201C818D908EA08FB084601B4
:102F10005701AEE18A169104A104B10430F0BB233D
:102F200051F1282BBC89B82BBC8B4230B8F1F22E62
:102F3000F82209F04CC0F62EF82209F048C0C2A8C9
:102F4000D3A8E4A8F5A8530142018C189D08AE0847
:102F5000BF0875016401ACEDCA16A5E0DA06E1040C
:102F6000F104A8F1682BBB89B82BBB8B30C0F82EBD
:102F7000F0943F21AFCFF82EF0942F21782B42AA66
:102F800053AA64AA75AA6F21423088F68F84988864
:102F9000A988BA8882A693A6A4A6B5A6F22EF8227E
:102FA000B1F4C2A4D3A4E4A4F5A4530142018C1843
:102FB0009D08AE08BF08B7FC0AC0082B84EBC80EFA
:102FC000D11CE11CF11CC2A6D3A6E4A6F5A64F5F56
:102FD0005F4F34964830510509F063CF00930501E7
:102FE000EB89E0930601FC89F093040170930301DF
:102FF000609307012093020130930101EE24E394D2
:10300000F12C809103018111F8C08091040181119C
:103010000AC180910601811109C1809105018111C8
:1030200008C18091A8029091A902A091AA02B09132
:10303000AB0253014201881A990AAA0ABB0AD501B8
:10304000C40184369105A105B10538F14092A8026A
:103050005092A9026092AA027092AB0284E10E948F
:103060008D059093A7028093A60285E10E948D05AD
:103070004091A4025091A50267E0649F9001659F72
:10308000300D1124820F931F23E0969587952A9582
:10309000E1F79093A5028093A40280912C04909173
:1030A0002D04A0912E04B0912F040097A105B10525
:1030B00009F445C04091A0025091A1026091A20282
:1030C0007091A30263015201A41AB50AC60AD70A75
:1030D000B601A501481759076A077B0780F140929E
:1030E000A0025092A1026092A2027092A30280916B
:1030F0002704882321F10091A4021091A502E090F9
:10310000A602F090A7028BE593E00E94F406B701B7
:1031100090E080E04AE00E94F30A85E593E00E9497
:10312000F406B80190E080E04AE00E94F30A8CE4E3
:1031300093E00E94F406C301B2010E94370B80E0C5
:1031400090E0892B09F48AC80E947106882309F44B
:1031500085C80E94000082C8809589238083AA24A4
:10316000A3947DE7C72E73E0D72E21E0E330F2076A
:10317000C9F052E0A52E63E7C62E63E0D62E31E0FB
:10318000E430F30779F034E0A32E4EE6C42E43E09A
:10319000D42EE650F14031F0E3E0AE2EF6E7CF2E2C
:1031A000F3E0DF2E8DE393E00E94F406B801110FE7
:1031B000880B990B4AE00E94F30A60E286E193E0F3
:1031C0000E94A706C6010E94F40684E393E00E94D1
:1031D000F406C301B2010E94370B51E0A51209C0E9
:1031E00081E0BB2019F082E0B51283E00E94F30574
:1031F00008CF84E0A81205CFF9CFE3E0F1E0908199
:1032000010E000E0B02E9701002E01C0220F0A94BA
:10321000EAF7822F29230F5F1F4F21119DCF08301E
:10322000110581F7FECEE4E0F1E0E9CFE6E0F1E060
:10323000E6CFE5E0F1E0E3CF8091500490915104B6
:103240000E94A21B80914D0490914E0497FD03C0F3
:1032500060E00C949D020895B0E0A0E0E2E3F9E1A3
:103260000C94881A5C016B017A016115710519F0E3
:10327000FB0191838083E114F10449F0C7010297B7
:10328000839728F060E070E0CB019CC05E01E5010F
:103290002196F5011081812F90E00E94171A892B49
:1032A000A9F71D3209F056C02196F501118101E000
:1032B000E114F10409F4AEC0F0E1EF16F10409F0F5
:1032C0008EC0103341F488818F7D883509F083C02A
:1032D000198122960260E0E1EE2EF12C88248A9476
:1032E000982CA82CFFE0BF2E20E060E070E0CB011E
:1032F00027010F2C000C66087708FE0150ED352ED3
:10330000310E39E0331538F43FEB310F3A31A0F587
:1033100049EC342E310E3E141F04BCF52F3FB9F09A
:1033200086169706A806B90670F1A30192010E94BD
:103330004A1A232D30E050E040E0620F731F841FD3
:10334000951F6217730784079507E8F021E021961F
:103350001081D3CF1B3221F4E5012296F5011181B2
:1033600000E0A6CF78E0E72EF12C88248A94982CF0
:10337000A82C6FE1B62EB8CF3FE9310F3A3128F4CF
:1033800039EA332EC7CF2FEFE2CFC114D10431F089
:103390002223E9F02197F601D183C08300FF07C003
:1033A00090958095709561957F4F8F4F9F4F2F3FE0
:1033B00049F482E290E090936B0480936A046FEF8B
:1033C0007FEFCB01CDB7DEB7E1E10C94A41A01FF8A
:1033D000E5CF2297E0CF10E3E114F10419F23AE0CF
:1033E000E316F104E9F080E1E816F10409F473CF83
:1033F000E8E0EE16F10409F4B8CF6FEF7FEFCB01F0
:1034000097010F2C000C440B550B0E945A1A4901CE
:103410005A016ACF103309F456CF9AE0E92EF12C05
:1034200089E9882E982CA82C89E1B82E5DCF9111BE
:103430000C94471A803219F089508550C8F70895C6
:10344000FA01A191B081009719F41097E1F0CD0134
:10345000DC01CD010D90002011F4C00113C0FB016F
:103460002191222319F02015D9F7F3CFFB012191E7
:10347000201519F41E92119606C02223C1F70D9053
:103480000020A1F7D001FA01A193B08308959927F4
:1034900088270895DB018F939F930E947C1ABF9128
:1034A000AF91A29F800D911DA39F900DB29F900D93
:1034B00011240895A1E21A2EAA1BBB1BFD010DC009
:1034C000AA1FBB1FEE1FFF1FA217B307E407F507D4
:1034D00020F0A21BB30BE40BF50B661F771F881FB0
:1034E000991F1A9469F760957095809590959B0146
:1034F000AC01BD01CF0108950E94BE1AA59F900D99
:10350000B49F900DA49F800D911D112408952F92BA
:103510003F924F925F926F927F928F929F92AF9263
:10352000BF92CF92DF92EF92FF920F931F93CF93B0
:10353000DF93CDB7DEB7CA1BDB0B0FB6F894DEBF47
:103540000FBECDBF09942A88398848885F846E846D
:103550007D848C849B84AA84B984C884DF80EE80B7
:10356000FD800C811B81AA81B981CE0FD11D0FB6C0
:10357000F894DEBF0FBECDBFED010895A29FB0014C
:10358000B39FC001A39F700D811D1124911DB29F97
:10359000700D811D1124911D0895AA1BBB1B51E1C3
:1035A00007C0AA1FBB1FA617B70710F0A61BB70BB3
:1035B000881F991F5A95A9F780959095BC01CD0158
:1035C0000895052E97FB1EF400940E94F81A57FDEB
:1035D00007D00E945A1A07FC03D04EF40C94F81A34
:1035E00050954095309521953F4F4F4F5F4F08952F
:1035F00090958095709561957F4F8F4F9F4F08955F
:10360000EE0FFF1F0590F491E02D09940F931F9387
:10361000CF93DF938230910510F482E090E0E09147
:103620006E04F0916F0430E020E0B0E0A0E030974D
:1036300099F42115310509F44AC0281B390B2430AF
:103640003105D8F58A819B816115710589F1FB01EE
:1036500093838283FE0111C04081518102811381D5
:1036600048175907E0F04817590799F4109761F087
:1036700012960C93129713961C933296CF01DF91FA
:10368000CF911F910F91089500936E0410936F04D2
:10369000F4CF2115310551F04217530738F0A90135
:1036A000DB019A01BD01DF01F801C1CFEF01F9CFC4
:1036B00090936F0480936E04CDCFFE01E20FF31F51
:1036C000819391932250310939832883D7CF209158
:1036D0006C0430916D04232B41F420915D013091F5
:1036E0005E0130936D0420936C0420915B01309156
:1036F0005C012115310541F42DB73EB740915F01C2
:1037000050916001241B350BE0916C04F0916D0425
:10371000E217F307A0F42E1B3F0B2817390778F0A8
:10372000AC014E5F5F4F2417350748F04E0F5F1F07
:1037300050936D0440936C04819391939FCFF0E07C
:10374000E0E09CCFCF93DF930097E9F0FC01329744
:1037500013821282A0916E04B0916F04ED0130E0EB
:1037600020E01097A1F420813181820F931F2091D6
:103770006C0430916D042817390709F061C0F0938B
:103780006D04E0936C04DF91CF910895EA01CE17A8
:10379000DF07E8F54A815B819E0141155105B1F7CC
:1037A000E901FB83EA8349915991C40FD51FEC17B6
:1037B000FD0761F4808191810296840F951FE901D4
:1037C00099838883828193819B838A83F0E0E0E000
:1037D00012968D919C9113970097B9F52D913C917C
:1037E0001197CD010296820F931F20916C043091A6
:1037F0006D042817390739F6309751F510926F0488
:1038000010926E04B0936D04A0936C04BCCFD3836C
:10381000C28340815181840F951FC817D90761F475
:103820004E5F5F4F88819981480F591F51834083B4
:103830008A819B81938382832115310509F0B0CF62
:10384000F0936F04E0936E049ECFFD01DC01C0CFC6
:1038500013821282D7CFDC0101C06D9341505040DA
:10386000E0F70895FB01DC018D91019080190110B2
:10387000D9F3990B089511E0C2EFD1E004C0FE0125
:103880000E94001B2196C33FD107C9F7F894FFCFD0
:10389000FFFFFF000000000000100000000000001B
:1038A0000000000000000000000000000000000018
:1038B0000000000000000000000000000000000008
:1038C00000000000000000000000000000000000F8
:1038D00000000000000000000000000000000000E8
:1038E00000000000000000000000000000700480E4
:1038F00000302E322E310002030506070B0C0E0F8E
:103900001011080A0D97041208200612082D081835
:1039100000200619001003160A17041C00170416CD
:103920000A10031C0000000000A706070634060F5B
:103930000765064306570600000000D208A50806E2
:1039400009C4059E088B087C080D0A004F4B002D0A
:1039500000200048454C4C4F004443422F3100505A
:10396000494E4700434D44004C45440052474200F5
:103970004D415452495800434C4541520050415426
:103980005445524E0049434F4E005445585400424E
:1039900041520042555A5A0050414E454C004F4644
:1039A0004600414C4C004252494748544E455353FF
:1039B00000474554005354415455530054454C4519
:0639C0004D455452590070
:00000001FF
