:100000000C94F8010C9420020C9420020C94200211
:100010000C9420020C9420020C9420020C94CC0C22
:100020000C9420020C9420020C9420020C942002C8
:100030000C9420020C9420020C9420020C942002B8
:100040000C94820C0C9420020C944E0D0C94280DF0
:100050000C9420020C9420020C9420020C94200298
:100060000C94800D0C942002303E5149453E3100E5
:10007000427F4000324261514946332141454B3174
:10008000341814127F10352745454539363C4A4906
:10009000493037017109050338364949493639066F
:1000A0004949291E417E1111117E427F4949493635
:1000B000433E41414122447F4141221C457F494901
:1000C0004941467F09090901487F0808087F49001E
:1000D000417F41004C7F404040404D7F020C027FF9
:1000E0004E7F0408107F4F3E4141413E507F090939
:1000F0000906527F09192946534649494931540195
:10010000017F0101553F4040403F561F2040201FC6
:10011000573F4038403F5863140814634443422F0C
:100120003120524541445920626F6172643D4B5306
:10013000303530312066773D0045565420485720F1
:100140004D41545249585F554E415641494C4142E8
:100150004C450041434B2000554E4B4E4F574E5F90
:10016000434F4D4D414E44004241445F54454C4540
:100170004D455452590030003100310020706C3D23
:100180000031002070623D00206D61747269783D1D
:10019000002053544154555320757074696D653D6A
:1001A000004441544120004241445F4745540042CD
:1001B00041445F50414E454C004241445F50414EE6
:1001C000454C004241445F50414E454C0050414E29
:1001D000454C5F4C45445F554E415641494C414268
:1001E0004C450050414E454C5F4C45445F554E4197
:1001F0005641494C41424C45004241445F50414EBA
:10020000454C004241445F42555A5A004241445FC6
:100210004D4154524958004241445F4D4154524966
:1002200058004241445F4D415452495800424144B4
:100230005F4D4154524958004D41545249585F5501
:100240004E415641494C41424C45004241445F5267
:100250004742004241445F4C4544004241445F4CA8
:100260004544004D414C464F524D45440045525285
:10027000202D20554E4B4E4F574E5F4D4553534109
:10028000474500455252202D204E4F545F434F4E5C
:100290004E45435445440020757074696D653D00BA
:1002A000504F4E47200030003100310020706C3D2F
:1002B0000031002070623D0020636170733D524741
:1002C000422C4D41545249582C42555A5A2C4254B2
:1002D0004E2C50414E454C2C53454E534F525320BB
:1002E00069723D30206D61747269783D0048454CFB
:1002F0004C4F204443422F31204B53303530312076
:1003000000455252202D2050524F544F434F4C5FC6
:100310004D49534D4154434800455654204C494E95
:100320004B2054494D454F555400455252202D20E5
:100330004C494E455F544F4F5F4C4F4E4700207520
:100340007074696D653D004556542042544E2050EE
:10035000414E454C5F0020757074696D653D00200D
:100360006D69633D0054454C2053454E534F5253E5
:10037000206C696768743D004C4F4E470055500033
:1003800052455045415400444F574E000000000074
:10039000240027002A000000000023002600290076
:1003A0000000000800020100000304070000000034
:1003B00000000000455252200002010204081020F3
:1003C00040800102040810200102040810200000EF
:1003D0000000250028002B00040404040404040485
:1003E0000202020202020303030303039F0E6B19BE
:1003F00011241FBECFEFD8E0DEBFCDBF24E0A4E4C0
:10040000B2E001C01D92AE37B207E1F712E0A0E002
:10041000B1E0EEE2F9E302C005900D92A434B10719
:10042000D9F711E0C7EFD1E004C02197FE010E9487
:100430004F1BC63FD107C9F70E94A20F0C948A1C1C
:100440000C940000833081F028F4813099F08230E0
:10045000A9F008958730A9F08830C9F08430B1F44C
:10046000809180008F7D03C0809180008F77809382
:100470008000089584B58F7784BD089584B58F7DFD
:10048000FBCF8091B0008F778093B000089580916A
:10049000B0008F7DF9CFCF93DF93282F30E0F901A3
:1004A000E056FC4F8491F901E654FC4FD491F901D8
:1004B000E852FC4FC491CC23A1F081110E9422028A
:1004C000EC2FF0E0EE0FFF1FEA56FC4FA591B49120
:1004D000EC91ED2381E090E009F480E0DF91CF9191
:1004E000089580E090E0FACF1F93CF93DF93282FF9
:1004F00030E0F901E056FC4F8491F901E654FC4FDD
:10050000D491F901E852FC4FC491CC23A9F0162FE5
:1005100081110E942202EC2FF0E0EE0FFF1FE25348
:10052000FC4FA591B4918FB7F894EC91111108C0CC
:10053000D095DE23DC938FBFDF91CF911F9108957B
:10054000DE2BF8CFCF93DF9390E0FC01E654FC4F15
:10055000249188529C4FFC0184918823C9F090E03B
:10056000880F991FFC01E457FC4FA591B491FC0141
:10057000E253FC4FC591D49161110DC09FB7F8941F
:100580008C91209582238C938881282328839FBF78
:10059000DF91CF910895623051F49FB7F8943C9168
:1005A000822F809583238C93E8812E2BEFCF8FB7FA
:1005B000F894EC912E2B2C938FBFEACF4F925F9241
:1005C0006F927F928F929F92AF92BF92CF92DF9263
:1005D000EF92FF920F931F93CF93DF9300D000D041
:1005E0001F92CDB7DEB78C012A013B01809100013B
:1005F0008930C9F08F3F09F47FC00F900F900F90A2
:100600000F900F90DF91CF911F910F91FF90EF907E
:10061000DF90CF90BF90AF909F908F907F906F9022
:100620005F904F900895E9EBF3E084918D8387FD0F
:10063000E4CF61E089E00E94A2028D81882321F04D
:100640009D81923009F05CC14801B12CA12C60E081
:1006500072E18AE790E0A50198010E94301B29838E
:100660003A834B835C8369017A0181E0C81AD1081F
:10067000E108F1089FEFC916D104E104F10409F083
:100680000CF413C160E472E48FE090E0A5019801DE
:100690000E94301B69017A0181E0C81AD108E10883
:1006A000F1089D81923009F098C08FEFC816D104EF
:1006B000E104F10409F00CF4DDC160E970ED83E0C0
:1006C00090E0A50198010E94301B69017A0191E038
:1006D000C91AD108E108F1088FEFC816D104E10466
:1006E000F10411F00CF0A3C183E09091B100987F68
:1006F000892B8093B100E1C089E080930001E9EB90
:10070000F3E094919D839F3F09F477CF913029F1D5
:1007100058F0923009F43FC08D8187FD6ECF61E0C3
:1007200089E00E94A2028CCF14BC15BC84B5826003
:1007300084BD85B5816085BDE1EEF3E0E491F0E034
:10074000EE0FFF1FE253FC4F85919491E3ECF3E031
:10075000E491E093C7021D826CCF1092800010924A
:100760008100809181008860809381008091810068
:10077000816080938100E1EEF3E0E491F0E0EE0F20
:10078000FF1FE253FC4F85919491E3ECF3E0E49179
:10079000E093C6024ECF1092B0001092B10080914B
:1007A000B00082608093B0008091B100816080933E
:1007B000B100E1EEF3E0E491F0E0EE0FFF1FE25351
:1007C000FC4F859194919093C5028093C402E3EC11
:1007D000F3E0E491E093C3022CCF9FEFC916D1045C
:1007E000E104F10409F00CF489C068E478EE81E0DA
:1007F00090E0A50198010E94301B69017A0181E017
:10080000C81AD108E108F1089D81992309F428C18B
:100810009FEFC916D104E104F10409F00CF41EC1E4
:1008200062E17AE780E090E0A50194010E94301B2C
:1008300069017A0181E0C81AD108E108F1089D81B7
:10084000992309F4EBC08FEFC816D104E104F10439
:1008500011F008F0BFC086E048CF64E274EF80E09A
:1008600090E0A50194010E94301B69017A0181E0AA
:10087000C81AD108E108F10885E09FEFC916D10434
:10088000E104F10409F008F430CF62E17AE780E096
:1008900090E0A50194010E94301B69017A0191E06A
:1008A000C91AD108E108F108CECF81E09D819111EC
:1008B0001CCF95B5987F892B85BD2FEF3FEFA90100
:1008C000411451046104710409F043C09D819130C9
:1008D00009F45EC0923009F46DC091118ECEC7BC90
:1008E0002093D0023093D1024093D2025093D3028E
:1008F00080916E00826080936E007FCE82E0D6CFC2
:10090000B12CA12C60E072E18AE790E0A50198018A
:100910000E94301B69017A0181E0C81AD108E10800
:10092000F108C114D10491E0E906F10404F591E065
:100930008D81813011F680918100887F892B809391
:1009400081002FEF3FEFA9014114510461047104AC
:10095000F9F0D801AA0FBB1FA30192010E94CB1A84
:1009600028EE33E040E050E00E94A91AAFCF68E4DF
:1009700078EE81E090E0A50198010E94301B6901AA
:100980007A0181E0C81AD108E108F10893E0D0CFDC
:10099000D0928900C09288002093CC023093CD027F
:1009A0004093CE025093CF0280916F00826080937B
:1009B0006F0023CEC092B3002093C8023093C902C7
:1009C0004093CA025093CB02809170008260809362
:1009D000700013CEC980DA80EB80FC809AE0F59439
:1009E000E794D794C7949A95D1F791E0C91AD108A2
:1009F000E108F10887E079CEC980DA80EB80FC80DD
:100A00008AE0F594E794D794C7948A95D1F791E05A
:100A1000C91AD108E108F10885E04BCF8FEFC8165D
:100A2000D104E104F10409F038F784E042CF68E42E
:100A300078EE81E090E0A50198010E94301B6901E9
:100A40007A0191E0C91AD108E108F1088FEFC816C0
:100A5000D104E104F10411F00CF0FFCE84E045CEA6
:100A60008FEFC816D104E104F10411F00CF0D8CED8
:100A700083E01FCF82E039CECF92DF92EF92FF92D8
:100A8000CF93DF93209172042130B1F02230C1F076
:100A90002330D1F0243039F423E0C9E7D1E030919C
:100AA00073043217A8F010927204DF91CF91FF9077
:100AB000EF90DF90CF90089522E0C1E9D1E0EFCF31
:100AC00022E0C9E8D1E0EBCF21E0C5E8D1E0E7CFF3
:100AD0006B017C0191E0930F9093730424E0329FAB
:100AE000C0011124C80FD91F4A8150E070E060E0B6
:100AF000888199810E94DE022A816B8170E090E0FA
:100B000080E0620F711D811D911DC60ED71EE81E6B
:100B1000F91EC0927404D0927504E0927604F092AB
:100B20007704C3CF8E50806480937C0080917A00DC
:100B3000806480937A0080917A0086FDFCCF80915A
:100B400078009091790008953FB7F8948091BB02A6
:100B50009091BC02A091BD02B091BE0226B5A89BA7
:100B600005C02F3F19F00196A11DB11D3FBFBA2F3F
:100B7000A92F982F8827BC01CD01620F711D811DFF
:100B8000911D42E0660F771F881F991F4A95D1F784
:100B900008950895089508959091000189130BC058
:100BA000E9EBF3E0E4919FEF90930001E13049F02D
:100BB00028F0E23061F060E00C94740210926E0054
:100BC000FACF90916F009D7F90936F00F4CF90913A
:100BD00070009D7F9093700091E09093B000909191
:100BE000B100987F94609093B1001092B300E3CF6E
:100BF000E3E5F4E0878F10A289E00E94CC052FB7CF
:100C0000F8946091BF027091C0028091C1029091EE
:100C1000C2022FBF0C943C05AF92BF92CF92DF92DD
:100C2000EF92FF920F931F93CF93DF936C017B01A1
:100C30008B01040F151FEB015E01AE18BF08C01732
:100C4000D10759F06991D601ED91FC910190F081A5
:100C5000E02DC6010995892B79F7C501DF91CF9168
:100C60001F910F91FF90EF90DF90CF90BF90AF90CA
:100C70000895FC01538D448D252F30E0842F90E0A2
:100C8000821B930B541710F0CF9608950197089587
:100C9000FC01918D828D981761F0A28DAE0FBF2F50
:100CA000B11D5D968C91928D9F5F9F73928F90E0A6
:100CB00008958FEF9FEF0895FC01918D828D981715
:100CC00031F0828DE80FF11D858D90E008958FEF52
:100CD0009FEF0895FC01918D228D892F90E0805C1B
:100CE0009F4F821B91098F739927089584E293E0A7
:100CF0000E946A0621E0892B09F420E0822F0895E2
:100D000080E090E0892B29F00E94760681110C94F6
:100D100000000895FC01A48DA80FB92FB11DA35A9E
:100D2000BF4F2C91848D90E001968F739927848F0B
:100D3000A689B7892C93A089B1898C91837080642E
:100D40008C93938D848D981306C00288F389E02DCF
:100D500080818F7D80830895EF92FF920F931F9380
:100D6000CF93DF93EC0181E0888F9B8D8C8D98135E
:100D70001AC0E889F989808185FF15C09FB7F8946A
:100D8000EE89FF896083E889F989808183708064B6
:100D900080839FBF81E090E0DF91CF911F910F9101
:100DA000FF90EF900895F62E0B8D10E00F5F1F4F10
:100DB0000F731127E02E8C8D8E110CC00FB607FC1F
:100DC000FACFE889F989808185FFF5CFCE010E94AD
:100DD0008A06F1CFEB8DEC0FFD2FF11DE35AFF4F8B
:100DE000F0829FB7F8940B8FEA89FB89808180623B
:100DF000CFCF0F931F93CF93DF938C01D0E0C0E050
:100E0000F801EC0FFD1F6491662341F084E293E04A
:100E10000E94AC06892B11F02196F2CFCE01DF9112
:100E2000CF911F910F910895CF93DF93EC01888D9F
:100E30008823B9F0AA89BB89E889F9898C9185FD55
:100E400003C0808186FD0DC00FB607FCF7CF8C91E3
:100E500085FFF2CF808185FFEDCFCE010E948A060B
:100E6000E9CFDF91CF91089520918502260F332796
:100E7000331F21323105ECF42091FA02FC0190E09D
:100E800080E0243069F082E00895A09185022191EC
:100E9000AC014B595D4FA40FB52FB11D2C9301969A
:100EA000861798F380918502680F6093850280E031
:100EB000089581E008951092FA0281E08093F9028A
:100EC0001092D40261E082E10E94740261E083E149
:100ED0000E947402E9EBF0E080818E7F8083808144
:100EE0008D7F808388E48093B80085E48093BC0084
:100EF0000895CF93DF9391E0909364028823B9F033
:100F0000C091B800D091BA008091BC008A7B8093D8
:100F1000BC0060E082E10E94740260E083E10E9414
:100F200074020E945B07D093BA00C093B800DF91AF
:100F3000CF910895CF92DF92EF92FF920F931F937C
:100F4000CF93DF93D091230381E0D13208F09CC08E
:100F5000C09122030E94A4056B017C018091FA02DA
:100F600081116CC082E08093FA0281E08093F902E3
:100F70008FEF8093F8021092F702D093F602A2E06E
:100F8000B3E0E6EDF2E080E0D8138DC01092D50218
:100F90008091D502CC0FC82BC093D5028091D4028A
:100FA000813009F084C01092D4020E94A4056B0124
:100FB0007C018091D5028093BB008091FC029091CE
:100FC000FD02A091FE02B091FF02892B8A2B8B2B90
:100FD000A1F00E94A4050091FC021091FD02209155
:100FE000FE023091FF026C197D098E099F090617D8
:100FF00017072807390708F442C08091BC0083FD19
:10100000D8CF85EC8093BC000E94A4056B017C01C5
:101010008091FA02823009F44CC08091F8028F3F2F
:1010200009F469C08091F802803209F466C08091A9
:10103000F802803309F463C084E026C08091FC028A
:101040009091FD02A091FE02B091FF02892B8A2BA4
:101050008B2B09F483CF0E94A4050091FC02109110
:10106000FD022091FE023091FF026C197D098E096C
:101070009F09061717072807390708F06FCF8091D7
:10108000FB020E94790785E010920103109223036E
:1010900010920003DF91CF911F910F91FF90EF907D
:1010A000DF90CF9008959D9191938F5F6DCF85EEE6
:1010B000A9CF8091FC029091FD02A091FE02B09117
:1010C000FF02892B8A2B8B2B09F4A2CF0E94A40547
:1010D0000091FC021091FD022091FE023091FF026E
:1010E0006C197D098E099F0906171707280739070C
:1010F00008F08ECFC4CF80E0C7CF82E0C5CF83E0B9
:10110000C3CFE091AD028091AC02E81730F4F0E07B
:10111000EC5BFD4F808190E008958FEF9FEF089585
:101120009091AD028091AC022FEF3FEF981748F4F9
:10113000E92FF0E0EC5BFD4F208130E09F5F909362
:10114000AD02C90108958091AC029091AD02891B56
:10115000990B0895CF92DF92EF92FF920F931F9316
:10116000CF93DF937C01CB018A01209100032223DE
:1011700089F0EB016B01C40ED51ECC15DD0569F0BD
:101180006991D701ED91FC910190F081E02DC701AB
:101190000995F3CF642F0E943407C801DF91CF91E6
:1011A0001F910F91FF90EF90DF90CF900895CF9314
:1011B000DF931F92CDB7DEB769832091000322230E
:1011C000F9F020912303203258F021E030E0FC01B7
:1011D0003383228390E080E00F90DF91CF910895D8
:1011E00080910103E82FF0E0EE5FFC4F998190833E
:1011F0008F5F809301038093230381E090E0ECCF25
:1012000061E0CE0101960E943407F7CF682F81EC90
:1012100093E00C94D70890E080E008958F929F921D
:10122000AF92BF92CF92DF92EF92FF921F93CF9334
:10123000DF93FC014A01AA24BB24C82DC32ED42E5F
:10124000E52EFF241C2DD22F8085882361F0889EF7
:1012500040011124C92D8C9D600111241D2D829FF8
:10126000D0011124DB2FA685E184F2849385A91394
:1012700022C0CB01880F991F680F791F6E0D7F1D4B
:10128000A385A60FB72FB11DCC93A485A60FB72FAA
:10129000B11D1C938585680F711DFB01D083DF9103
:1012A000CF911F91FF90EF90DF90CF90BF90AF90C4
:1012B0009F908F900895660F771F660F771F6E0DB2
:1012C0007F1D252F332744275527882349F090E099
:1012D000829F7001839FF00C929FF00C11242F2DA0
:1012E000A60FB72FB11D2C93CBCFCF92DF92EF92E9
:1012F000FF920F931F93CF93DF93CDB7DEB729975C
:101300000FB6F894DEBF0FBECDBF8C01DC0119967D
:101310008D919C91892B09F473C00E94A405F8015A
:10132000C784D088E188F2886C157D058E059F05FD
:1013300020F46787708B818B928BF801C784D088EB
:10134000E188F2886C197D098E099F096C32714021
:101350008105910510F3F894D80114968D919C9114
:1013600015979A8389831996ED91FC917F01BFEFC0
:10137000EB1AFB0A80818987F80190810388F48940
:10138000E02DD80155968C91992309F448C090819D
:10139000982B98879081809589238F838F818C8368
:1013A00088E08B8358856F8149853B812C818981B9
:1013B0009A81D701508347FD252F3A952083262F08
:1013C00039F0441F00C000006083000000C0F2CF6D
:1013D00038E04D9160830000019761F7D801549681
:1013E000FC93EE93539749873B832C839A8389839D
:1013F00078940E94A405F8016787708B818B928B8B
:1014000029960FB6F894DEBF0FBECDBFDF91CF9106
:101410001F910F91FF90EF90DF90CF9008959081F2
:10142000982B98879081809589238F838F818E83D5
:1014300088E08D8358856F8149853D812E81898122
:101440009A81D701508347FD252F00C000C020831B
:1014500000C000C000C000C000C060830000262F94
:101460003A9541F0441F000000C000C000C000C019
:1014700000C0E8CF38E04D9100C0608300C0019704
:1014800009F7D8015496FC93EE93539749873D830F
:101490002E83ACCF0F931F93CF93DF93FC01208952
:1014A000222341F1EC0181E08093000380E78093E7
:1014B0002203109201031092230390E080E00E9427
:1014C00006098E01005F1F4F6881229681EC93E030
:1014D0000E94D708FE013297618181EC93E00E945F
:1014E000D7080C171D0781F7DF91CF911F910F913E
:1014F0000C949A07DF91CF911F910F91089560315D
:10150000D0F44830C1F050E0440F551FDC01A40F67
:10151000B51F8D919C911197E1E0F0E0AF0102C001
:10152000440F551F6A95E2F7BA01222329F0682B70
:10153000792B6D937C93089560957095682379233A
:10154000F8CFAF92BF92CF92DF92EF92FF920F93BC
:101550001F93CF93DF936C01142F8FE9860F8A318D
:1015600008F46052D0E0C0E0FE01E859FF4FE4917A
:10157000E61779F02696C43BD105B1F7DF91CF91FC
:101580001F910F91FF90EF90DF90CF90BF90AF90A1
:101590000895C759DF4F05E0010FFE01A490F12C1B
:1015A000E12CB12C95010E2C02C0369527950A949A
:1015B000E2F721704E2D612FC6010E947F0AFFEFD6
:1015C000EF1AFF0A87E0E816F10461F721961F5F22
:1015D0001013E3CFD3CFFC0101900020E9F731973E
:1015E000AF01481B590BBC0184E293E00C940C063C
:1015F0008F929F92AF92BF920F931F93CF93DF93DF
:10160000CDB7DEB7A1970FB6F894DEBF0FBECDBF42
:1016100019A2423008F44AE08E010F5D1F4F842E5C
:10162000912CB12CA12CA50194010E94A91AE62F9E
:10163000B901CA01EA30F4F4E05DD801EE938D01FE
:10164000232B242B252B79F790E080E0109719F0BD
:10165000CD010E94EB0AA1960FB6F894DEBF0FBE33
:10166000CDBFDF91CF911F910F91BF90AF909F9011
:101670008F900895E95CE1CFCF93DF934AE00E9419
:10168000F80AEC018DEB91E00E94EB0A8C0F9D1F94
:10169000DF91CF910895CF93DF930E94F906EC017B
:1016A0008DEB91E00E94EB0A8C0F9D1FDF91CF9193
:1016B0000895009711F00C94EB0A90E080E00895F3
:1016C0000F931F93CF93DF938C01EB0184EB93E097
:1016D0000E94F906C8010E94590B60E284E293E07F
:1016E0000E94AC06CE01DF91CF911F910F910C9417
:1016F0004B0B0F931F93CF93DF93EC018B01198A50
:101700001A8A1B8A1C8A80E1FE0111928A95E9F7E8
:1017100060EC71E0C8010E94811C892BC1F58885AD
:1017200099858860998788878A859B8580619B8752
:101730008A878C859D8580629D878C8716E00BE06B
:10174000602F611B21E0412FCE010E947F0A1150C2
:10175000B8F710E0CE010E944A0A112399F02FB782
:10176000F8948091BF029091C002A091C102B09103
:10177000C2022FBF88519C4FAF4FBF4F898B9A8BAE
:10178000AB8BBC8BDF91CF911F910F91089569EEC8
:1017900071E0C8010E94811C892BA1F410E00BE0CC
:1017A00064E0610F21E0412FCE010E947F0A602F8B
:1017B000611B21E0412FCE010E947F0A1F5F18307C
:1017C00079F7C7CF0115110521F0F801608161118A
:1017D00001C06FE345E0CE010E94A10A11E0BACF3B
:1017E00085ED8093BC008091FC029091FD02A09158
:1017F000FE02B091FF020796A11DB11D23E0B69530
:10180000A795979587952A95D1F72091BC0024FD3F
:1018100003C01092FA0208954091FC025091FD021B
:101820006091FE027091FF02452B462B472B69F316
:101830000097A105B10541F02AE22A95F1F700C011
:101840000197A109B109E1CF8091FB020C947907BE
:10185000CF92DF92EF92FF920F931F93CF93DF937C
:1018600000D0CDB7DEB7009759F1DC01EC91EE2343
:1018700039F189016A017B011A8219824AE050E03C
:10188000BE016F5F7F4F0E947B19E981FA81208141
:10189000211116C0C616D706E806F90688F0F80129
:1018A000608371838283938381E00F900F90DF9137
:1018B000CF911F910F91FF90EF90DF90CF900895FF
:1018C00080E0F3CF0F931F93CF93DF9300D000D02E
:1018D000CDB7DEB78B019E012F5F3F4F4FEF50E03A
:1018E00060E070E00E94280C882319F09981F801CB
:1018F00090830F900F900F900F90DF91CF911F91D9
:101900000F9108951F920F920FB60F9211242F93EB
:101910003F938F939F93AF93BF938091BF0290911A
:10192000C002A091C102B091C2023091BA0223E07C
:10193000230F2D3758F50196A11DB11D2093BA0232
:101940008093BF029093C002A093C102B093C202E1
:101950008091BB029091BC02A091BD02B091BE02E9
:101960000196A11DB11D8093BB029093BC02A09370
:10197000BD02B093BE02BF91AF919F918F913F91F5
:101980002F910F900FBE0F901F90189526E8230FF0
:101990000296A11DB11DD2CF1F920F920FB60F92CA
:1019A00011242F933F934F935F936F937F938F9364
:1019B0009F93AF93BF93EF93FF938091C802909151
:1019C000C902A091CA02B091CB02892B8A2B8B2B22
:1019D000D1F19091C302E091C402F091C5028081DF
:1019E000892780838091C8029091C902A091CA0280
:1019F000B091CB02181619061A061B069CF48091AA
:101A0000C8029091C902A091CA02B091CB0201977D
:101A1000A109B1098093C8029093C902A093CA0298
:101A2000B093CB02FF91EF91BF91AF919F918F91B6
:101A30007F916F915F914F913F912F910F900FBECA
:101A40000F901F901895809100010E94CC05EACF5D
:101A50001F920F920FB60F9211242F933F934F9323
:101A60005F936F937F938F939F93AF93BF93EF9306
:101A7000FF9384E293E00E948A06FF91EF91BF9169
:101A8000AF919F918F917F916F915F914F913F9116
:101A90002F910F900FBE0F901F9018951F920F92CD
:101AA0000FB60F9211242F938F939F93EF93FF9371
:101AB000E0913403F09135038081E0913A03F09195
:101AC0003B0382FD1BC0908180913D038F5F8F732C
:101AD00020913E03821741F0E0913D03F0E0EC5D80
:101AE000FC4F958F80933D03FF91EF919F918F91D4
:101AF0002F910F900FBE0F901F9018958081F4CFFB
:101B00001F920F920FB60F9211242F933F934F9372
:101B10005F936F937F938F939F93AF93BF93EF9355
:101B2000FF938091B900887F803609F44AC0F0F5B0
:101B3000883209F4A7C018F5803109F49BC0B8F4C5
:101B4000882309F4F9C0883009F494C0FF91EF911B
:101B5000BF91AF919F918F917F916F915F914F91C5
:101B60003F912F910F900FBE0F901F9018958831C5
:101B700009F488C0803251F78093F80214C0803491
:101B800009F49DC040F48033B9F38833F9F68093AB
:101B9000F80285ECB0C0803509F485C0883509F4B9
:101BA00096C0883499F60E94F00BD0CF883909F49A
:101BB0008CC038F5883729F050F4883611F080371A
:101BC00029F683E08093FA021092A70257C0883862
:101BD00009F47BC0803919F0803809F0B7CF8091C3
:101BE000A702803208F071C0E091A70281E08E0F59
:101BF0008093A7028091BB00F0E0E957FD4F8083FE
:101C00003DC0803B39F0E0F4803A09F479C0883A6D
:101C100009F09CCF84E08093FA0210928602109221
:101C20008502E091AA02F091AB02099580918502AC
:101C300081110FC081E0809385021092650209C076
:101C4000803C09F4A6CF883C09F4A3CF883B09F077
:101C50007DCFE091860281E08E0F80938602F0E0D6
:101C6000EB59FD4F80818093BB009091860280915B
:101C7000850229C08091D5028093BB0085EC8093BA
:101C8000BC0064CF9091F7028091F602981758F546
:101C9000E091F70281E08E0F8093F702F0E0EA52C4
:101CA000FD4F8081E9CFE091F70281E08E0F8093B4
:101CB000F7028091BB00F0E0EA52FD4F80839091E3
:101CC000F7028091F6029817C8F285E8D8CFE09124
:101CD000F70281E08E0F8093F7028091BB00F0E065
:101CE000EA52FD4F80838091F90281115CCF81E03F
:101CF0008093D40284EA8093BC001092FA0226CF2B
:101D000085EC8093BC001092FA028091A702803289
:101D100030F4E091A702F0E0E957FD4F10826091A6
:101D2000A70270E0E091A802F091A90287E892E092
:101D300009951092A7020ACF1092F80234CF1092A0
:101D400027031092260388EE93E0A0E0B0E0809392
:101D5000280390932903A0932A03B0932B032DE922
:101D600031E0309325032093240325EC30E03093B9
:101D700031032093300324EC30E03093330320937D
:101D8000320320EC30E0309335032093340321EC10
:101D900030E0309337032093360322EC30E0309369
:101DA00039032093380326EC30E030933B03209333
:101DB0003A0310923D0310923E0310923F0310929B
:101DC00040031092C4031092C3038093C503909301
:101DD000C603A093C703B093C8038FEA91E0909322
:101DE000C2038093C1038EE394E0909354048093E4
:101DF00053041092560410925D04109264041092E1
:101E00006504109266041092670481E08093630475
:101E1000809360041092610492E090936204809336
:101E2000550486E090E090935A04809359040E94F0
:101E3000551B90935F0480935E04009709F479C06A
:101E400026E0FC0111922A95E9F782E090E0909358
:101E500058048093570484E090E090935C0480934E
:101E60005B0480915604882341F061E084E00E9485
:101E7000A20260E084E00E947402ECEDF3E0E491E1
:101E8000F0E0EE0FFF1FE253FC4F85919491909389
:101E9000690480936804EEEBF3E0E491E0936A0454
:101EA00081E080936B0410926C0410926D04109288
:101EB0006E0410926F0485E0809370048093710427
:101EC00010927204109273041092740410927504AC
:101ED000109276041092770483E594E09093CE03F9
:101EE0008093CD038EE394E09093D0038093CF034F
:101EF00081E091E09093D2038093D1031092330458
:101F00001092340410923504109236041092370463
:101F1000109238041092390488EE93E0A0E0B0E00B
:101F200080933A0490933B04A0933C04B0933D0407
:101F3000089510925A041092590410925804109265
:101F4000570489CFCF93DF93CDB7DEB768970FB62D
:101F5000F894DEBF0FBECDBF789484B5826084BD97
:101F600084B5816084BD85B5826085BD85B581609D
:101F700085BD80916E00816080936E00109281001B
:101F800080918100826080938100809181008160D6
:101F90008093810080918000816080938000809197
:101FA000B10084608093B1008091B0008160809323
:101FB000B00080917A00846080937A0080917A00EA
:101FC000826080937A0080917A00816080937A00A9
:101FD00080917A00806880937A001092C1001092FC
:101FE000AD021092AC0210920103109223030E94E2
:101FF0005B078AEC95E09093AB028093AA028BEC8E
:1020000095E09093A9028093A80281E08093000359
:1020100080E7809322030E949A0791E0811190E06B
:1020200090934E04F12C81113DC011E010930003F8
:10203000109201031092230381E290E00E940609AE
:102040000E949A0710930003109201031092230339
:1020500081E890E00E9406090E949A0780914E0450
:10206000882361F010930003109201031092230360
:1020700085EE90E00E9406090E949A0710924F0494
:10208000109250041092510410925204EEE3F4E0C6
:1020900080E1DF011D928A95E9F7CF010E944A0A8B
:1020A000FF24F39461E089E00E94A20280915B0426
:1020B00090915C0497FD2EC061E00E94A20260E056
:1020C00080915B040E94740281E0809356046091C9
:1020D0005D0420915E0430915F04613421F1615010
:1020E000E1F070E08FEF90E40E941C1BF901409139
:1020F000590450915A04CF01821B930B8417950702
:1021000078F44081469FC001479F900D1124908331
:102110003196EDCF10925604DACF70E060E0E6CF52
:1021200081E480935D044091590450915A0470E019
:1021300060E080915E0490915F040E947A1C85E5C6
:1021400094E00E94750980916B04882351F01092ED
:102150006B0469EE71E080915304909154040E94E5
:10216000790B1092020110920101ABE6CA2EA1E098
:10217000DA2E10E000E0F601E1906F0162E08E2DB2
:102180000E94A2028E2D0E944B028130910551F4D3
:10219000002E01C0880F0A94EAF790910101892B63
:1021A000809301010F5F1F4F0830110521F78091C7
:1021B000010180930201F9E7CF2EF1E0DF2E03E762
:1021C00011E0D801ED908D0161E08E2D0E94A202F8
:1021D00060E08E2D0E947402C016D10691F7E09146
:1021E0003403F091350382E08083E0913003F09175
:1021F00031031082E0913203F091330380E1808358
:1022000010923C03E0913803F091390386E080831B
:10221000E0913603F0913703808180618083E09103
:102220003603F0913703808188608083E091360324
:10223000F0913703808180688083E0913603F091CC
:10224000370380818F7D80838CE191E00E94F906C5
:1022500085E691E00E94EB0A8DEB91E00E94EB0A8B
:10226000F11004C089E391E00E944B0B8FB7F89402
:102270004090BF025090C0026090C1027090C202B4
:102280008FBF22242394312C84E293E00E946A06BB
:10229000181619060CF0D0C484E293E00E94480698
:1022A0008A3009F0B1C480913404882349F08AE26D
:1022B00093E00E944B0B1092340410923304E4CF4D
:1022C000E0913304EE23C9F3F0E0E353FC4F1682B0
:1022D0001C861B86AE01455F5F4F65EC71E083EDA8
:1022E00093E00E946F1A8C01009739F367EC71E05C
:1022F0000E94811C892B09F07EC0AE01455F5F4FB3
:1023000065EC71E090E080E00E946F1A009731F078
:102310006DEC71E00E94811C892B29F081E093E033
:102320000E944B0BCACF81E0809335044092360463
:102330005092370460923804709239040091CD03B2
:102340001091CE03F801908D91112CC0808F7801EF
:10235000F2E0EF0EF11CD80114968D919C91892B1F
:1023600049F020E034EB40E050E070E060E0C7016D
:102370000E940E09F80184819581029748F020E0BF
:1023800034EB40E050E061E070E0C7010E940E09CC
:10239000C7010E94750960EC71E0D8018D919C9194
:1023A0000E94790B8DEE92E00E94F90685E691E09D
:1023B0000E94590B88EB92E00E94F906E091CF034E
:1023C000F091D0038089882399F088EA92E00E94F6
:1023D000F90683EB92E00E94F90681EB92E00E94FD
:1023E000F9068CEA92E00E94F9068AEA92E098CF18
:1023F00086EA92E0ECCF63ED71E0C8010E94811C97
:10240000892B31F5AE01455F5F4F65EC71E090E0DF
:1024100080E00E946F1A8C01892B11F403EC11E00B
:102420004092360450923704609238047092390416
:1024300080EA92E00E94F906C8010E94590B87E9E0
:1024400092E00E94F906C301B2010E943C0B35CF15
:1024500068ED71E0C8010E94811C892B09F0D1C38D
:1024600080913504811103C083E892E059CF4092F6
:1024700036045092370460923804709239048B8588
:102480009C859A878987AE01475F5F4F65EC71E055
:1024900090E080E00E946F1A8C01AE01475F5F4FB1
:1024A00065EC71E090E080E00E946F1A7C010115FC
:1024B000110541F0009749F463E672E0C8010E94FB
:1024C000600BFBCE03EC11E0F7CF6CED71E00E94E6
:1024D000811C892BE1F4AE01475F5F4F65EC71E031
:1024E00090E080E00E946F1A7C01AE01475F5F4F71
:1024F00065EC71E090E080E00E946F1AEF2821F017
:1025000063E572E0892BD1F66BE572E0D7CF60EE20
:1025100071E0C7010E94811C892B09F07FC0AE01C8
:10252000475F5F4F65EC71E090E080E00E946F1ABA
:102530004C01AE01475F5F4F65EC71E090E080E0D9
:102540000E946F1A5C01AE01475F5F4F65EC71E05E
:1025500090E080E00E946F1A6C01AE01475F5F4F10
:1025600065EC71E090E080E00E946F1A7C01BE0192
:10257000625F7F4FC4010E94620C882309F44BC044
:10258000BE01635F7F4FC5010E94620C882309F47E
:1025900042C0BE016B5F7F4FC6010E94620C882360
:1025A000D1F1BE016F5F7F4FC7010E94620C88238B
:1025B00091F1E091CD03F091CE0389812D819D852C
:1025C0006E85623040F5308D332329F17F01B2E012
:1025D000EB0EF11C30E050E040E0542F432F322F3F
:1025E0002227492B282B70E0848195816817790771
:1025F00018F4C7010E940E09C7010E94750983E5FE
:1026000091E00E94F906C8010E94EB0A8DEB91E06F
:102610000E94EB0A52CE6BE472E050CF64EE71E0A0
:10262000C7010E94811C892B09F00AC1AE01475FD6
:102630005F4F65EC71E090E080E00E946F1A6C01E2
:10264000892BF9F0E090CF03F090D003F701808957
:102650008823B9F06BEE71E0C6010E94811C892BC2
:1026600099F4D70151961D921D921D921C92549778
:1026700080E1F70111928A95E9F7C7010E944A0AA1
:10268000BECF68E372E01ACF61EF71E0C6010E942D
:10269000811C892B01F5D70151961D921D921D9227
:1026A0001C925497DD24D394B12CC12C2C2D2D0DCC
:1026B00021704B2D6C2DC7010E947F0AC394B0E19D
:1026C000CB12F4CFB394D394ED2DE170DE2EF8E06D
:1026D000BF12EBCFD2CF69EF71E0C6010E94811C1F
:1026E000892BB1F4AE01475F5F4F65EC71E090E07C
:1026F00080E00E946F1A6DE272E0009709F4DECE6E
:10270000BC018091CF039091D0030E94790B77CFC9
:102710006EEF71E0C6010E94811C892BA1F5AE010C
:10272000475F5F4F65EC71E090E080E00E946F1AB8
:102730006C0162E272E0892B09F4C0CEE090CF0315
:10274000F090D003D70151961D921D921D921C92BC
:10275000549780E1F70111928A95E9F7D6016C91BF
:10276000662309F48ACF11968C9145E0882339F0CD
:1027700041E0C7010E94A10A49E0F6016181C70159
:102780000E94A10A7ACF63E072E0C6010E94811C18
:10279000892B09F052C0AE01475F5F4F65EC71E0D5
:1027A00090E080E00E946F1ABE016F5F7F4F0E9431
:1027B000620C882309F43EC089818536D8F5E09003
:1027C000CF03F090D00390E1D7011D929A95E9F7DD
:1027D000B0E18B9FC001112464E670E00E941C1BD5
:1027E000B62ED12CDB1470F4CC24C39421E04C2DF4
:1027F0006D2DC7010E947F0AC394E7E0CE12F6CF89
:10280000D394F0CFC7010E944A0A2FB7F894809161
:10281000BF029091C002A091C102B091C2022FBF2D
:1028200084529A4FAF4FBF4FF701818B928BA38B8E
:10283000B48BE5CE67E172E041CE6CE072E03ECE53
:1028400067E072E0C7010E94811C892B09F047C034
:10285000AE01475F5F4F65EC71E090E080E00E9461
:102860006F1A9E012B5F3F4F48E853E160E070E034
:102870000E94280C882381F1AE01475F5F4F65EC11
:1028800071E090E080E00E946F1A9E012F5F3F4F41
:102890004AEF50E060E070E00E94280C8823E1F0ED
:1028A0008D819E819C012456310925323341A0F44B
:1028B00049815A816B817C819A01215031092A3FDB
:1028C000310550F4E091CD03F091CE03178E6627C9
:1028D00077270E94DE0293CE63E072E0EFCD6CE0DA
:1028E00072E0C7010E94811C892B09F0F7C0AE017C
:1028F000475F5F4F65EC71E090E080E00E946F1AE7
:102900007C0169EF71E0009709F4D8CD6CED71E0BE
:102910000E94811C892B09F048C0AE01475F5F4FC0
:1029200065EC71E090E080E00E946F1A6C01AE01EE
:10293000475F5F4F65EC71E090E080E00E946F1AA6
:102940007C01BE016F5F7F4FC6010E94620C88232D
:1029500049F1E114F10431F16BEF71E0C7010E941C
:10296000811C6C01892B39F062E172E0C7010E9481
:10297000811C892BB9F4E091D103F091D2038981B4
:10298000863080F4410102C0880C991C8A95E2F7D8
:10299000C4012781CD2819F4822B878330CE8095FE
:1029A0008223FBCF63EE71E089CD66E172E0C7015F
:1029B0000E94811C892BD9F4AE01475F5F4F65EC03
:1029C00071E090E080E00E946F1A009769F062E188
:1029D00072E00E94811C892B39F4E091D103F091BF
:1029E000D2038781807CD9CF6DEC71E067CD6AE13D
:1029F00072E0C7010E94811C892BA9F5AE01475FD7
:102A00005F4F65EC71E090E080E00E946F1ABE01BC
:102A10006F5F7F4F0E94620C882311F1E090D10319
:102A2000F090D20369816536D8F46623A9F070E08E
:102A300090E080E024E0660F771F881F991F2A9599
:102A4000D1F76D597F4F8F4F9F4F24E630E040E024
:102A500050E00E94A91A622FD70118966C93CFCD2F
:102A600063EC71E02BCD65E272E0C7010E94811C2E
:102A7000892B89F5AE01475F5F4F65EC71E090E00F
:102A800080E00E946F1A9E012F5F3F4F40E157E2A6
:102A900060E070E00E94280C8823D1F0E091D1031F
:102AA000F091D20389819A81AB81BC81AC01BD01D7
:102AB000445F5140610971094D315542610571050D
:102AC00038F4E65AFF4F80839183A283B38397CD76
:102AD00069EB71E0F3CC6FEA71E0F0CC6FE272E089
:102AE000C7010E94811C892B09F045C0AE01475FD8
:102AF0005F4F65EC71E090E080E00E946F1A0097F4
:102B000031F063E372E00E94811C892B19F067EABF
:102B100071E0D4CC81EA91E00E94F906C8010E94DC
:102B2000590B81E991E00E94F9064AE0C301B20124
:102B30000E94F80A88E891E00E94F906E091CF032C
:102B4000F091D0038089882399F088E791E00E9472
:102B5000F90683E891E00E94F90681E891E00E947D
:102B6000F9068CE791E00E94F9068AE791E0D8CB5C
:102B700086E791E0ECCF6AE372E0C7010E94811C16
:102B8000892BE1F5AE01475F5F4F65EC71E090E0A6
:102B900080E00E946F1A7C01009779F062E172E098
:102BA0000E94811C892B49F410923A0410923B0434
:102BB00010923C0410923D0422CD9E012F5F3F4FA6
:102BC00040E157E260E070E0C7010E94280C8823D2
:102BD00091F089819A81AB81BC818A3F9105A105E1
:102BE000B10548F080933A0490933B04A0933C04D1
:102BF000B0933D0404CD68E671E060CC68E571E017
:102C00005DCC8DE692E08CCB8D3009F43DCBE0912C
:102C10003304EF3568F490913404911109C091E0C8
:102C20009E0F90933304F0E0E353FC4F86832CCB4C
:102C300081E08093340428CB80913504882349F1C6
:102C40008091360490913704A0913804B0913904F2
:102C5000B301A201481B590B6A0B7B0BDB01CA01B4
:102C600089389341A105B105A0F010923504E09197
:102C7000CD03F091CE03808D882339F0108E69EE5C
:102C800071E0808191810E94790B89E193E00E943B
:102C90004B0B809172048823B1F080917404909161
:102CA0007504A0917604B091770453014201881A0B
:102CB000990AAA0ABB0AD501C401B7FD04C0C30121
:102CC000B2010E943C0580916B0481115CC080912F
:102CD0006C0490916D04A0916E04B0916F04630137
:102CE0005201A81AB90ACA0ADB0AD601C501C2975D
:102CF000A105B10508F447C040926C0450926D04E0
:102D000060926E0470926F0420917104809170043F
:102D1000422F022E000C550B840F952F911DAC01F4
:102D2000465051094A34510538F0219520937104D9
:102D3000820F911D27FD9A95282F80937004809112
:102D4000570490915804892B49F030E050E040E05E
:102D500070E060E085E594E00E940E0980915704E0
:102D600090915804029758F02091700430E050E0A0
:102D700040E061E070E085E594E00E940E0985E5A1
:102D800094E00E94750980914F0490915004A091A5
:102D90005104B09152040097A105B105F1F07301FF
:102DA0006201C81AD90AEA0AFB0AD701C601B7FDAF
:102DB00014C08091350410924F0410925004109268
:102DC00051041092520460EC71E0811102C069EE6E
:102DD00071E08EE394E00E94790B0E94A4050091BB
:102DE0005701109158012091590130915A014B011E
:102DF0005C01801A910AA20AB30A95018401043F7A
:102E000011402105310598F16093570170935801E5
:102E10008093590190935A0180910A018F5F8F70BE
:102E200080930A0103E711E0D12CC12CEE24E39436
:102E3000F12C8091080197010C2C01C0220F0A94FB
:102E4000EAF7822339F061E090910A01809109014B
:102E5000981708F060E0D8018D918D010E947402EE
:102E6000BFEFCB1ADB0AE6E0CE16D10411F7809152
:102E7000530190915401A0915501B0915601530115
:102E80004201881A990AAA0ABB0AD501C40105970A
:102E9000A105B10508F400C14092530150925401BC
:102EA00060925501709256011BE6C12E11E0D12EA1
:102EB000F12CE12C10E0D6018D916D010E944B02A6
:102EC0008130910531F40E2C01C0880F0A94EAF785
:102ED000182BBFEFEB1AFB0AE8E0EE16F10459F7E6
:102EE00020910201309101015091030140910701AD
:102EF000F0910401F88F80905B0190905C01A090AC
:102F00005D01B0905E018F86988AA98ABA8A9090F6
:102F100006019F8A00910501E1E0F1E070E060E0C8
:102F200022242394312CD301C2018C509E4FAF4FE9
:102F3000BF4F8B8B9C8BAD8BBE8BC101062E01C00E
:102F4000880F0A94EAF7E12EE822CC24C394E1101A
:102F500001C0C12CDD24D394F32EF82209F4D12C26
:102F6000CD1441F0EE2009F450C0382B4286538630
:102F700064867586B32FB823DD24D394E22EE8222D
:102F800009F4D12CEE24E394B11101C0E12CDE143C
:102F9000C1F082849384A484B58473016201C8184B
:102FA000D908EA08FB0846015701AEE18A169104E8
:102FB000A104B10430F0BB2361F1282BB88DB82BEC
:102FC000B88F6230C8F1F22EF82209F04EC0F42E0C
:102FD000F82209F04AC0C2A8D3A8E4A8F5A8530172
:102FE00042018C189D08AE08BF08750164018F84EA
:102FF0009888A988BA88C814D904EA04FB04A8F1FF
:10300000482B9F88982A9F8A30C0F82EF0943F2141
:10301000ADCFF82EF0942F21582B42AA53AA64AAC0
:1030200075AA4F21623078F68B889C88AD88BE885F
:1030300082A693A6A4A6B5A6F22EF822B1F4C2A445
:10304000D3A4E4A4F5A4530142018C189D08AE0852
:10305000BF08B7FC0AC0082B84EBC80ED11CE11CCA
:10306000F11CC2A6D3A6E4A6F5A66F5F7F4F3496E7
:103070006830710509F061CF00930501AF88A09217
:103080000601B88CB09204015093030140930701EC
:103090002093020130930101EE24E394F12C8091FE
:1030A00003018111F9C08091040181110BC180914C
:1030B000060181110AC180910501811109C1809128
:1030C000B6029091B702A091B802B091B902530133
:1030D0004201881A990AAA0ABB0AD501C40184369A
:1030E0009105A105B10538F14092B6025092B702A0
:1030F0006092B8027092B90284E10E9492059093A6
:10310000B5028093B40285E10E9492054091B2021B
:103110005091B30267E0649F9001659F300D1124C8
:10312000820F931F23E0969587952A95E1F7909358
:10313000B3028093B20280913A0490913B04A09133
:103140003C04B0913D040097A105B10509F445C0C8
:103150004091AE025091AF026091B0027091B10205
:1031600063015201A41AB50AC60AD70AB601A5011D
:10317000481759076A077B0780F14092AE025092C8
:10318000AF026092B0027092B10280913504882340
:1031900021F10091B2021091B302E090B402F090DC
:1031A000B50285E693E00E94F906B70190E080E061
:1031B0004AE00E94F80A8FE593E00E94F906B80100
:1031C00090E080E04AE00E94F80A86E593E00E94E1
:1031D000F906C301B2010E943C0B80E090E0892B0C
:1031E00009F444C80E947606882309F43FC80E9467
:1031F00000003CC8809589238083AA24A39477E8A3
:10320000C72E73E0D72E21E0E330F207C9F052E079
:10321000A52E6DE7C62E63E0D62E31E0E430F3072D
:1032200079F033E0A32E40E8C42E43E0D42EE650DC
:10323000F14031F4E4E0AE2EF8E7CF2EF3E0DF2EDC
:1032400087E493E00E94F906B801110F880B990BEF
:103250004AE00E94F80A60E284E293E00E94AC0631
:10326000C6010E94F9068EE393E00E94F906C301AD
:10327000B2010E943C0B51E0A51209C081E0BB20C5
:1032800019F082E0B51283E00E94F80508CF64E0EF
:10329000A61205CF84E0F8CFE3E0F1E0908110E0E2
:1032A00000E0B02E9701002E01C0220F0A94EAF729
:1032B000822F29230F5F1F4F21119CCF083011054A
:1032C00081F7FDCEE4E0F1E0E9CFE6E0F1E0E6CF22
:1032D000E5E0F1E0E3CF80915E0490915F040E940D
:1032E000F11B80915B0490915C0497FD03C060E04A
:1032F0000C94A2020895B0E0A0E0E1E8F9E10C949A
:10330000D71A5C016B017A016115710519F0FB0197
:1033100091838083E114F10449F0C70102978397F8
:1033200028F060E070E0CB019CC05E01E5012196D1
:10333000F5011081812F90E00E94661A892BA9F770
:103340001D3209F056C02196F501118101E0E1140A
:10335000F10409F4AEC0F0E1EF16F10409F08EC0FB
:10336000103341F488818F7D883509F083C019813D
:1033700022960260E0E1EE2EF12C88248A94982CAB
:10338000A82CFFE0BF2E20E060E070E0CB01270119
:103390000F2C000C66087708FE0150ED352E310E1B
:1033A00039E0331538F43FEB310F3A31A0F549ECF1
:1033B000342E310E3E141F04BCF52F3FB9F0861693
:1033C0009706A806B90670F1A30192010E94991A06
:1033D000232D30E050E040E0620F731F841F951FE3
:1033E0006217730784079507E8F021E021961081A2
:1033F000D3CF1B3221F4E5012296F501118100E0C3
:10340000A6CF78E0E72EF12C88248A94982CA82C5B
:103410006FE1B62EB8CF3FE9310F3A3128F439EADF
:10342000332EC7CF2FEFE2CFC114D10431F02223C6
:10343000E9F02197F601D183C08300FF07C0909582
:103440008095709561957F4F8F4F9F4F2F3F49F427
:1034500082E290E090937904809378046FEF7FEF9D
:10346000CB01CDB7DEB7E1E10C94F31A01FFE5CF54
:103470002297E0CF10E3E114F10419F23AE0E316E9
:10348000F104E9F080E1E816F10409F473CFE8E013
:10349000EE16F10409F4B8CF6FEF7FEFCB0197017F
:1034A0000F2C000C440B550B0E94A91A49015A011C
:1034B0006ACF103309F456CF9AE0E92EF12C89E94E
:1034C000882E982CA82C89E1B82E5DCF91110C94F0
:1034D000961A803219F089508550C8F70895FA017C
:1034E000A191B081009719F41097E1F0CD01DC01B2
:1034F000CD010D90002011F4C00113C0FB012191FA
:10350000222319F02015D9F7F3CFFB0121912015C3
:1035100019F41E92119606C02223C1F70D900020C7
:10352000A1F7D001FA01A193B083089599278827C4
:103530000895DB018F939F930E94CB1ABF91AF91A7
:10354000A29F800D911DA39F900DB29F900D1124FD
:103550000895A1E21A2EAA1BBB1BFD010DC0AA1FD4
:10356000BB1FEE1FFF1FA217B307E407F50720F0EC
:10357000A21BB30BE40BF50B661F771F881F991F67
:103580001A9469F760957095809590959B01AC01B0
:10359000BD01CF0108950E940D1BA59F900DB49F02
:1035A000900DA49F800D911D112408952F923F929C
:1035B0004F925F926F927F928F929F92AF92BF9243
:1035C000CF92DF92EF92FF920F931F93CF93DF93EF
:1035D000CDB7DEB7CA1BDB0B0FB6F894DEBF0FBE4C
:1035E000CDBF09942A88398848885F846E847D8499
:1035F0008C849B84AA84B984C884DF80EE80FD809B
:103600000C811B81AA81B981CE0FD11D0FB6F89410
:10361000DEBF0FBECDBFED010895A29FB001B39FE5
:10362000C001A39F700D811D1124911DB29F700DCB
:10363000811D1124911D0895AA1BBB1B51E107C0D8
:10364000AA1FBB1FA617B70710F0A61BB70B881F32
:10365000991F5A95A9F780959095BC01CD010895C1
:10366000052E97FB1EF400940E94471B57FD07D0C0
:103670000E94A91A07FC03D04EF40C94471B5095E6
:103680004095309521953F4F4F4F5F4F089590954E
:103690008095709561957F4F8F4F9F4F0895EE0FE6
:1036A000FF1F0590F491E02D09940F931F93CF9382
:1036B000DF938230910510F482E090E0E0917C0489
:1036C000F0917D0430E020E0B0E0A0E0309799F484
:1036D0002115310509F44AC0281B390B2430310566
:1036E000D8F58A819B816115710589F1FB0193836E
:1036F0008283FE0111C040815181028113814817EC
:103700005907E0F04817590799F4109761F012969D
:103710000C93129713961C933296CF01DF91CF91A1
:103720001F910F91089500937C0410937D04F4CFB2
:103730002115310551F04217530738F0A901DB017B
:103740009A01BD01DF01F801C1CFEF01F9CF9093DC
:103750007D0480937C04CDCFFE01E20FF31F8193A3
:1037600091932250310939832883D7CF20917A044D
:1037700030917B04232B41F420916101309162014F
:1037800030937B0420937A0420915F013091600193
:103790002115310541F42DB73EB740916301509199
:1037A0006401241B350BE0917A04F0917B04E2174D
:1037B000F307A0F42E1B3F0B2817390778F0AC0154
:1037C0004E5F5F4F2417350748F04E0F5F1F509331
:1037D0007B0440937A04819391939FCFF0E0E0E0E3
:1037E0009CCFCF93DF930097E9F0FC0132971382CF
:1037F0001282A0917C04B0917D04ED0130E020E0C4
:103800001097A1F420813181820F931F20917A04B7
:1038100030917B042817390709F061C0F0937B04CD
:10382000E0937A04DF91CF910895EA01CE17DF0784
:10383000E8F54A815B819E0141155105B1F7E90127
:10384000FB83EA8349915991C40FD51FEC17FD07FB
:1038500061F4808191810296840F951FE90199831B
:103860008883828193819B838A83F0E0E0E01296D3
:103870008D919C9113970097B9F52D913C911197DB
:10388000CD010296820F931F20917A0430917B0420
:103890002817390739F6309751F510927D041092A8
:1038A0007C04B0937B04A0937A04BCCFD383C283FF
:1038B00040815181840F951FC817D90761F44E5F6D
:1038C0005F4F88819981480F591F518340838A81B6
:1038D0009B81938382832115310509F0B0CFF0934A
:1038E0007D04E0937C049ECFFD01DC01C0CF1382F8
:1038F0001282D7CFDC0101C06D9341505040E0F7F8
:103900000895FB01DC018D91019080190110D9F31C
:10391000990B089511E0C7EFD1E004C0FE010E94A9
:0E3920004F1B2196C83FD107C9F7F894FFCF7F
:10392E00FFFFFF000000000000100000000000007C
:10393E000000000000000000000000000000000079
:10394E000000000000000000000000000000000069
:10395E000000000000000000000000000000000059
:10396E000000000000000000000000000000000049
:10397E000000000000000000000000DC0500000058
:10398E00007E048000302E322E3200020305060720
:10399E000B0C0E0F1011080A0D97041208200612B8
:1039AE00082D081800200619001003160A17041C0B
:1039BE00001704160A10031C0000000000AC060CD1
:1039CE0006390614076A0648065C0600000000D792
:1039DE0008AA080B09C905A308900881080D0A005A
:1039EE004F4B002D00200048454C4C4F00444342A5
:1039FE002F310050494E4700434D44004C45440082
:103A0E00524742004D415452495800434C45415291
:103A1E00005041545445524E0049434F4E005445B8
:103A2E005854004241520042555A5A0050414E4598
:103A3E004C004F464600414C4C00425249474854B8
:103A4E004E455353004C4F4E47505245535300472B
:103A5E004554005354415455530054454C454D451F
:043A6E005452590055
:00000001FF
